:020000040800F2
:10000000300B002029010008250100082501000807
:100010002501000825010008250100080000000056
:1000200000000000000000000000000025010008A2
:100030002501000800000000250100082501000836
:1000400025010008250100082501000825010008F8
:1000500025010008250100082501000825010008E8
:1000600025010008250100082501000825010008D8
:1000700025010008250100082501000825010008C8
:1000800025010008250100082501000800000000E6
:100090000000000000000000000000002501000832
:1000A0002501000825010008250100082501000898
:1000B000D90700081D0200082501000825010008D5
:1000C0002501000825010008250100082501000878
:1000D00025010008ED06000825010008250100089B
:1000E0002501000825010008250100080000000086
:1000F0000000000000000000000000000000000000
:1001000000000000000000000000000000000000EF
:100110000000000000000000250100082501000883
:100120005FF808F1FEE700BF0C480D4A08B59042A1
:1001300007D2013A121A22F003020A49043204F0EB
:1001400091F8094809494FF000028842B8BF40F8C9
:10015000042BFADBBDE8084000F080BC0000002062
:1001600028000020E8440008280000202C07002078
:1001700030B5012185B0022001F06EFB0021022084
:1001800001F076FB002505230E4C01A92046CDE9A0
:1001900001358DF80C5001F0C9FB2046012101F01A
:1001A00051FC01222046114601F032FC064B684604
:1001B000009300F0BFFE2946204601F01BFC05B06D
:1001C00030BD00BF000400401D00010100B3F8B5C0
:1001D0000027104C104D461E0021284601F00AFC55
:1001E0004FF47A71284601F01FFC0021284601F0E7
:1001F00019FC0121284601F0FDFB27702378002B14
:10020000FCD00021284601F0F5FB013EE4D2F8BD08
:10021000704700BF280000200004004008B50121FD
:10022000064801F003FC00B908BD0121034801F0B4
:1002300009FC0122024B1A7008BD00BF00040040F7
:1002400028000020F0B520271F4E83B0002205466D
:100250000C461E4840F22551C6F8847001F060FC3F
:1002600040F22551194801F0A3FC4FF4587117488A
:1002700001F09EFC0021154801F044FC01214FF4DF
:10028000804001F0DDFA00234FF4402210490F486E
:100290008B814B608A600D6001F0D8FB0D4B01A88B
:1002A000019300F047FE0121084801F02BFC0CB936
:1002B00003B0F0BD012240F22551044801F030FCAA
:1002C000776003B0F0BD00BF00E100E000380140FE
:1002D0002C000020250F020100214FF0006000F0EB
:1002E00057BE00BF10B501F0BDF94FF4803001F0EA
:1002F000DDF901F0F7F9012800D010BD0446102007
:1003000000F0BEFF022000F0B1FF902001F016FACD
:100310004FF4A06001F026FA4FF4806001F018FA63
:10032000204601F0F9F901F001FA0428FBD110BDD3
:10033000F8B5114E114B3446114D44F8103F284684
:100340002146104F00F0A8FF28460F2101F050F978
:100350000121384601F04EF90A20FFF737FF3846F1
:10036000002101F047F94823F37421462846BDE8EF
:10037000F84000F091BF00BF2C0000200080011069
:1003800000080140000430002DE9F8438C4C0121A5
:10039000042001F055FA21468A4B8B4841F8103F62
:1003A00000F07AFF0121082001F04AFA2146874B2C
:1003B000874841F8103F00F06FFF214604264FF4B4
:1003C0008045844B824841F8103F00F065FF80482B
:1003D00004F110012582E67400F05EFF0121102077
:1003E00001F02EFA21467C4B7C4841F8103F00F08A
:1003F00053FF21467A4B764841F8103F00F04CFFFE
:100400002846012101F028FA4FF400674FF082736B
:1004100000251822C4E905370723724804F11401A6
:100420002262A384A58301F02FFA01216D4801F017
:1004300069FA01216B4801F051FA4FF4827369485F
:1004400004F11401E38201F01FFA21464FF48069A0
:10045000654B5D4841F8103F00F01EFF5A4804F11B
:100460001001E674A4F8109000F016FF29464FF42E
:100470001650FFF7E7FE21464FF080085B4B5448CB
:1004800041F8103F00F008FF514804F110012782A5
:10049000E67400F001FF564B2946C3F884805548A6
:1004A00001F030FB01214FF4802001F0D5F94FF429
:1004B00040224FF4964321464E48A2602360A58116
:1004C000656001F0C3FA01214A4801F01BFB0121DC
:1004D0000226084601F0A8F9474800F009FE474BFC
:1004E00001214748E362C4E90C56256500F08AFD06
:1004F0004FF48073C4E91039424B2027A3624FF4B4
:1005000000533D4804F12801E364C4F83C80A7642B
:10051000A56300F081FE0121374800F09BFE4023D7
:100520002146294821F8103FE57400F0B5FE214628
:10053000254821F8107FE57400F0AEFE284601F052
:100540001BF901214FF4007001F07AF940F2011219
:100550004FF460232A4804F15401A4F85820E365BD
:100560006565256684F8646000F01CFD03230122A4
:100570000521234800F06EFD032332460621204862
:1005800000F068FD01211E4800F03CFD1C480121DF
:1005900000F02EFD1A4800F03FFD194800F042FD22
:1005A0000028FAD1164800F041FD154800F044FD3E
:1005B0000028FAD1BDE8F8430121114800F040BD00
:1005C0002C000020001001100008014080010110E3
:1005D000000C014000A00118002001100010014093
:1005E00000800118003800400002011800040118C2
:1005F00000E100E000480040080002404001002007
:10060000002401404C24014070B5184C184B214681
:10061000072541F8103F174800F03EFE01214FF436
:10062000804001F019F94FF082704FF400611823F7
:100630000022A584104D04F11406C4E905013146D9
:1006400028462362A28301F01FF92846012101F008
:1006500059F92846012101F041F94FF482733146DE
:100660002846E382BDE8704001F00EB92C0000205E
:1006700000800118000C014000380040012130B515
:10068000044685B0084601F0E7F80021012001F09A
:10069000EFF8144B002293FBF4F30525013B01A96D
:1006A0004FF08040ADF80830ADF80A208DF80C20EE
:1006B000019501F03BF901214FF0804001F0C2F9B2
:1006C00001224FF08040114601F0A2F9064B684626
:1006D000009300F02FFC01214FF0804001F08AF9D7
:1006E00005B030BD40420F001C00010108B540F2CA
:1006F00025510C4801F03CFA38B10A4801F02EFAB5
:10070000BDE80840C0B202F095B84FF458710548F2
:1007100001F02EFA00B908BD0248BDE8084001F01A
:100720001DBA00BF0038014010B5284C204601F02A
:1007300047FA637D012B05D040F214520023626218
:10074000236210BD227C022AF6D9216A51B96420A5
:10075000627CC2F1410292B200FB02F26262A162CB
:10076000236210BD4EF66020A36A194A03F53B537D
:100770002033A362A36A03F6B833A362A36AA2FB81
:1007800003C1890B00FB1133B3F5FA6F13D84FF493
:100790007A710022637CC3F1410301FB03F3A3627E
:1007A000A2626421A36A0B4AA2FB03239B0901FBFB
:1007B00003F3636210BD4EF28F21A36AA2FB03C252
:1007C000920B00FB12338B42EBD9E0E79400002040
:1007D00073B2E745D34D6210002330B5012183B0D9
:1007E0004FF08040ADF8063001F020F908B903B0B1
:1007F00030BD01214FF0804001F024F902F084F96E
:1008000000285AD13C4C94F82C302BBB94F82C3057
:1008100023B9636A013B6362002B53D0374D6B6889
:10082000013B6B60002BE2D194F8A030B3FA83F364
:100830005B0984F8A03094F8A030002B35D094F8F0
:10084000A1301B0631D5AB681BB180212C4800F0CC
:10085000CFFE64236B60CAE7236B062BD6D1A28E32
:10086000E38E92B29BB29A4233D2A38E234D9BB2B7
:100870002A78234493F83C1053B2194111F0010136
:100880004FF0010218BF0321722000F0B5F92B7858
:10089000013B5BB22B702B781A06A8D507232B706F
:1008A000A38E01339BB2A386A1E7AB68002BD0D007
:1008B0008021134800F09AFECBE703B0BDE830403A
:1008C00002F01CB9012384F83830636A013B63628B
:1008D000A4E784F82C0084F8380000F071FAFFF7E0
:1008E00023FF6420FFF7CAFE01220221712003B01A
:1008F000BDE8304000F080B99400002000000020E6
:10090000000C014010B5284CD4F8A4300133C4F8D1
:10091000A43000F0C7FA4FF41672B4F8AC3084F883
:10092000A8009BB202FB03F31B13C4F8B03072B6ED
:10093000204601F045F962B6637D012B15D094F88D
:10094000B4300133DBB2072B84F8B4301FD8002356
:10095000012094F8A120154902F07F0284F8A1201B
:10096000C4E901332360886010BDA368104A0020E9
:100970009342CCBF0023012394F8A1200B4942F0FD
:10098000800284F8A12084F8B4008B6010BDBFF30E
:100990004F8F0849084BCA6802F4E0621343CB60EA
:1009A000BFF34F8FFEE700BF94000020000000203F
:1009B00027460F0000ED00E00400FA05F0B589B00D
:1009C0004FF055314DF22D42EC464FF0070E1A27ED
:1009D0000026204C204D2368607D01936368E1630D
:1009E0000293A368A4F840200393B4F8B030E786DC
:1009F000ADF8103094F9A830A6868DF81230237C1B
:100A000085F800E003F07F0343EAC013D4F8A400A4
:100A10008DF813300090BCE80F00C4F84200DCF8F9
:100A20000000C4F84E30C4F852004FF49650C4F899
:100A30004610C4F84A20FFF721FE01220821712048
:100A400000F0DAF800F008FA012384F82C3009B03D
:100A5000F0BD00BF94000020000000202DE9F04F01
:100A6000002601248BB0FFF73DFCFFF735FCFFF7B4
:100A70008BFC6420FFF702FEFFF77AFB01F048FDD4
:100A80004FF48071584800F0B3FD8021564800F0C3
:100A9000ADFD00F0BBF9554800F0DCF8544D0122E3
:100AA00005216D2000F0A8F801220021712000F03E
:100AB000A3F805F1B803C5F8E43185F82C6085F892
:100AC0003840FFF7A1FD494800F0C4F8DFF818915D
:100AD000224631467120474C00F08EF80DF11B077D
:100AE00001F0D8FF00F0B8F92E6295F82C3003F031
:100AF000FF02ABB995F8383093B12B6B93B9FFF780
:100B000001FF4FF48071484600F070FD06232B630F
:100B1000FFF754FF95F82C3003F0FF02002BE9D0CB
:100B200030BFE2E72B6B042B09D02B6B062B06D0D2
:100B30002B6B2A63052BD8D100F042F9D5E70523AA
:100B40002B6372B6AB68D5F8A4801A46D5E900BA13
:100B50000193B5F8B0300592ADF818302B7C6A7D62
:100B600003F07F0343EAC2138DF81B30CDE9028BFB
:100B700095F9A830CDF810A08DF81A3080212046C4
:100B800000F0F0FF0028F9D0AA21204600F0E2FF93
:100B90000DF107068021204600F0E4FF0028F9D07F
:100BA00016F8011F204600F0D5FFB742F2D1019997
:100BB00088EA0B03069A83EA0A034B405340C3F3C7
:100BC00007265E40C3F30742564086EA1366F6B234
:100BD0008021204600F0C6FF0028F9D0314620468B
:100BE00000F0B8FF62B680E7000C0140645BD943B7
:100BF000940000200048004010B522B340F080006F
:100C0000040224B20C4311484FF40051A4B200F086
:100C1000EFFC02210E4800F083FE0028F9D02146A7
:100C20000B4800F069FE0121094800F079FE002818
:100C3000F9D04FF40051054800F0D8FC044800F00A
:100C40005DFEC0B210BD000204B2DBE7001001403F
:100C500000380040F8B55249074602F069F851499A
:100C6000044602F017FA0546003D18BF01252E463E
:100C70004D49204602F010F902F020FA73B2002B21
:100C800014BF6FF0170300230135C4B2183C284687
:100C90001C4401F0F9FF454902F04AF80146384684
:100CA00002F0FAF894FBF5F40546E0B201F0ECFF2F
:100CB0000146284601F032FF3D4901F02FFF3D4932
:100CC00002F036F802F0FAF9054604F01F0343EA91
:100CD00046135BB243F4754343F040034FF40051B5
:100CE0003548ADB29CB200F083FC0221334800F0DD
:100CF00017FE0028F9D02146304800F0FDFD012103
:100D00002E4800F00DFE0028F9D04FF400512A487B
:100D100000F06CFC294800F0F1FD2C0A4FF4005162
:100D2000254844F4764400F063FC0221234800F097
:100D3000F7FD0028F9D02146204800F0DDFD012113
:100D40001E4800F0EDFD0028F9D04FF400511A487C
:100D500000F04CFC194800F0D1FDEDB24FF4005109
:100D6000154845F4774500F043FC0221134800F094
:100D7000D7FD0028F9D02946104800F0BDFD01211B
:100D80000E4800F0CDFD0028F9D00B484FF400517B
:100D900000F02CFCBDE8F840084800F0AFBD00BFF3
:100DA0003BB1933F0000F04300002041ABAA0A4151
:100DB0000000C04100007A470010014000380040A8
:100DC0004FF4005108B50F4800F012FC02210E4804
:100DD00000F0A6FD0028F9D048F240710A4800F062
:100DE0008BFD0121084800F09BFD0028F9D0054843
:100DF0004FF4005100F0FAFBBDE80840024800F053
:100E00007DBD00BF00100140003800404FF400518C
:100E100008B50F4800F0ECFB02210E4800F080FD01
:100E20000028F9D048F280710A4800F065FD0121E0
:100E3000084800F075FD0028F9D005484FF400512E
:100E400000F0D4FBBDE80840024800F057BD00BFE9
:100E500000100140003800404FF4005108B50F4821
:100E600000F0C6FB02210E4800F05AFD0028F9D020
:100E700048F24B710A4800F03FFD0121084800F09C
:100E80004FFD0028F9D005484FF4005100F0AEFBAB
:100E9000BDE80840024800F031BD00BF001001402D
:100EA000003800404FF4005110B5204800F0A0FB7E
:100EB00002211F4800F034FD0028F9D041F2FF1153
:100EC0001B4800F019FD0121194800F029FD0028F8
:100ED000F9D04FF40051154800F088FB144800F099
:100EE0000DFD0446C4F34604403C4FF400510F4846
:100EF000A4B200F07DFB02210D4800F011FD002896
:100F0000F9D048F680710A4800F0F6FC0121084843
:100F100000F006FD0028F9D04FF40051034800F01E
:100F200065FB034800F0EAFC60B210BD0010014010
:100F30000038004030B501240178C37801F01F0269
:100F40004FEA511C9440C3B10F4B0F25DA6890F85B
:100F500001E0D2438378C2F30222D540C2F10402F9
:100F60002B400EFA02F2094813431B010144DBB285
:100F700081F8003340F82C4030BD044B0CF1200CBC
:100F800043F82C4030BD00BF00ED00E000E100E080
:100F900021F06041024B21F07F01014399607047CD
:100FA00000ED00E0436891F804C023F4702310B40E
:100FB00023F480730C6843EA0C2323434360836863
:100FC0000A4A91F805C01A40D1E90243234313436A
:100FD00043EA4C0383600A7CC36A013A23F470033A
:100FE000D2B243EA025310BCC3627047FDF7F1FF6F
:100FF000836819B143F001038360704723F0010354
:1010000083607047836819B143F4807383607047CD
:1010100023F4807383607047836843F00803836020
:10102000704700BF8068C0F3C0007047836843F01A
:1010300004038360704700BF8068C0F3800070477E
:10104000836819B143F4A0038360704723F4A003BD
:1010500083607047092910B52ED94FF0070EA1F112
:101060000A0CC4680CEB4C0C03FA0CF30EFA0CFCE3
:1010700024EA0C042343C360062A0DD84FF01F0C4A
:10108000013A436B02EB820291400CFA02F223EA2E
:1010900002031943416310BD0C2A4FF01F041AD8F4
:1010A000073A036B02EB8202914004FA02F223EA50
:1010B00002031943016310BD4FF0070C046901EBF3
:1010C000410E0CFA0EFC03FA0EF324EA0C0C43EA70
:1010D0000C030361D0E70D3AC36A02EB8202914030
:1010E00004FA02F223EA02031943C16210BD00BFF1
:1010F0004FF6FE7C00230268394902EA0C0288425E
:101100000260036043608360C36027D0354B984220
:101110001ED0354B98422DD0344B984230D0344BB2
:10112000984221D0334B984230D0334B984239D03B
:10113000324B98423CD0324B98422DD0314B9842A2
:101140003CD0314B98423FD0304B984242D0704710
:101150002F4A536843F0F003536070472C4A53689A
:1011600043F00F0353607047294A536843F47023D8
:1011700053607047264A536843F470635360704766
:10118000234A536843F4704353607047204A5368BE
:1011900043F47003536070471E4A536843F0F003F2
:1011A000536070471A4A536843F070635360704746
:1011B000184A536843F00F0353607047154A536849
:1011C00043F4706353607047124A536843F47043AA
:1011D000536070470F4A536843F470235360B6E777
:1011E000080002401C00024030000240440002405F
:1011F000580002406C000240800002400804024097
:101200001C040240300402404404024058040240DE
:1012100000000240000402408B6830B40C6A0A6986
:1012200023431343CD69D1E90542234313434C6A59
:101230002B43026823438C6A6FF30E122343CC685E
:1012400013430360D1E900234460826030BCC36073
:10125000704700BF21B1036843F00103036070478A
:101260004FF6FE720368134003607047034A136829
:1012700003F0380303431360704700BF00200240AF
:10128000044B1A6822F010021A601A6802431A60AE
:10129000704700BF0020024000B591F803C01CF069
:1012A000100F18BF8B780CF00F0E18BF4EEA030E0C
:1012B0000B88DAB2002A6AD0BCF1280F026800F06D
:1012C0008C80BCF1480F00F04A81D90744BF22F05E
:1012D0000F024EEA0202990744BF22F0F00242EAEE
:1012E0000E12590744BF22F4706242EA0E22190717
:1012F00044BF22F4704242EA0E32D90644BF22F4BF
:10130000702242EA0E42990644BF22F4700242EA79
:101310000E52590644BF22F0706242EA0E6219066C
:1013200048BF6EF31F72FF2B02602ED94268D905A9
:1013300044BF22F00F024EEA0202990544BF22F098
:10134000F00242EA0E12590544BF22F4706242EAEA
:101350000E22190544BF22F4704242EA0E32D9042B
:1013600044BF22F4702242EA0E42990444BF22F4A0
:10137000700242EA0E52590444BF22F0706242EAFF
:101380000E621B0400F12F8142605DF804FBFF2B0D
:10139000FBD9BCF1280F426861D0BCF1480FC6D11F
:1013A000D90500F1D480990500F1C980590500F1F3
:1013B000BE80190500F1B380D90400F1A88099041A
:1013C00000F19D80590400F192801B04DCD54FF49C
:1013D00000436EF31F720361D6E7D90705D50121DB
:1013E00022F00F024EEA02024161990705D502215F
:1013F00022F0F00242EA0E124161590705D504219C
:1014000022F4706242EA0E224161190705D50821D3
:1014100022F4704242EA0E324161D90605D510210C
:1014200022F4702242EA0E424161990605D520213C
:1014300022F4700242EA0E524161590605D540215C
:1014400022F0706242EA0E624161190603D58021E2
:101450006EF31F724161FF2B026096D94268D90575
:1014600006D54FF4807122F00F024EEA020241616C
:10147000990506D54FF4007122F0F00242EA0E12EF
:101480004161590506D54FF4806122F4706242EA49
:101490000E224161190506D54FF4006122F4704215
:1014A00042EA0E324161D90406D54FF4805122F44C
:1014B000702242EA0E424161990406D54FF4005170
:1014C00022F4700242EA0E524161590406D54FF4EB
:1014D000804122F0706242EA0E6241611B047FF596
:1014E00053AF4FF400436EF31F7243614CE74FF468
:1014F000804122F0706242EA0E62016165E74FF4BA
:10150000005122F4700242EA0E5201615AE74FF490
:10151000805122F4702242EA0E4201614FE74FF4FB
:10152000006122F4704242EA0E32016144E74FF456
:10153000806122F4706242EA0E22016139E74FF4C1
:10154000007122F0F00242EA0E1201612EE74FF420
:10155000807122F00F024EEA0202016123E7D907EF
:1015600005D5012122F00F024EEA0202016199071E
:1015700005D5022122F0F00242EA0E12016159075C
:1015800005D5042122F4706242EA0E220161190796
:1015900005D5082122F4704242EA0E320161D906D3
:1015A00005D5102122F4702242EA0E42016199060B
:1015B00005D5202122F4700242EA0E52016159063B
:1015C00005D5402122F0706242EA0E6201611906DF
:1015D00003D580216EF31F720161FF2B02607FF63D
:1015E000D4AE4268DCE66EF31F72CDE6016170474F
:1015F0004161704700281A4B00F44012B4BFDB6908
:101600005B68B2F5401F10B41FFA80FC1FD0C20205
:1016100014D50322C0F30344A24023EA020343F09B
:10162000706321B1410D09010CFA01F213430C4A18
:10163000002810BCB4BFD36153607047420D120143
:101640000CFA02F223EA020343F07063E9E7044C68
:1016500023F07063626822F070626260E1E700BFAD
:101660000000014010B400204FF41F040D4B0E4A3F
:10167000196841F00101196059680A405A601A68F6
:1016800022F0847222F480321A601A6822F48022D6
:101690001A605A6822F4FE025A609C6010BCD8623C
:1016A000704700BF001002400000FFF80C4BB0F57F
:1016B000803F1A6822F480321A601A6822F480226D
:1016C0001A6008D0B0F5802F00D070471A6842F435
:1016D000A0221A6070471A6842F480321A6070477C
:1016E00000100240002382B00A4A0193136813F4E9
:1016F000003F019B03F101030193019B05D0054BC2
:101700001868C0F3404002B07047B3F5A06FEDD148
:10171000F5E700BF00100240034A536823F00303BB
:1017200003435360704700BF00100240024B5868EB
:1017300000F00C00704700BF00100240034A5368DD
:1017400023F0F00303435360704700BF00100240D2
:10175000034A536823F4E06303435360704700BFB8
:1017600000100240034A536823F4605343EAC00365
:101770005360704700100240034A536823F440430B
:1017800003435360704700BF00100240214A10B469
:10179000536803F00C03042B2FD0082B21D01E4BD1
:1017A0001C4903604C681D4AC4F30314145DE340F4
:1017B00043604C68C4F30224145D23FA04F484608B
:1017C0004C68C4F3C22C12F80C40E340C360496873
:1017D00010BCC1F381310A44127CB3FBF2F3036104
:1017E000704753685168C3F38343C90303F102038D
:1017F00005D40B4A02FB03F3D2E70A4BD0E7D26AC7
:10180000084902F00F020132B1FBF2F202FB03F3CE
:10181000C6E700BF0010024000127A0050430008E3
:1018200000093D0000366E01044A536911B10343BB
:101830005361704723EA0003536170470010024070
:10184000044A936911B103439361704723EA00038B
:101850009361704700100240044AD36911B10343F9
:10186000D361704723EA0003D36170470010024040
:10187000044A136911B103431361704723EA00035B
:101880001361704700100240B1F802C00B888A88CB
:1018900043EA0C03B1F806C013430A8943EA0C0378
:1018A00000B5B1F80AE0B1F80CC0134343EA0E03E7
:1018B000028843EA0C03B1F80EC002F4415243EA35
:1018C0000C0313439BB20380838B0A8A23F40063C7
:1018D0001B041B0C838302825DF804FB038821B187
:1018E0009BB243F040030380704723F040031B0486
:1018F0001B0C0380704700BF81817047808980B2D4
:10190000704700BF838821B19BB243F004038380FA
:10191000704723F004031B041B0C8380704700BF37
:101920000389194214BF01200020704710B42B4CCA
:101930000388A0428A88B1F800C09BB219D0284C15
:10194000A04216D0B0F1804F25D0A4F59834A04223
:1019500021D004F58064A0421DD004F58064A0422B
:1019600019D0204CA0422AD103808285A0F828C03B
:101970000DE04C8823F070032343CC8823F440739C
:10198000234303808285A0F828C00B7A03860123B5
:1019900010BC838270474C8823F070032343CC88AB
:1019A00023F44073234303808285A0F828C00E4BA4
:1019B0009842EAD003F580639842E8D1E5E70B4C02
:1019C000A042D1D0CC8823F4407323430380084B3A
:1019D00082859842A0F828C0D7D0E8E7002C0140C3
:1019E0000034014000100040004401400014004059
:1019F00000400140038821B19BB243F00103038002
:101A0000704723F001031B041B0C0380704700BFC9
:101A100083899BB212B10B438381704723EA010390
:101A2000838170478184704781857047038A8289EA
:101A300011EA030092B203D00A4214BF0120002031
:101A4000704700BFC94389B20182704730B5044670
:101A5000238ACA889BB223F4405313432382A38969
:101A60008A8823F4B05323F00C031B041B0C13438C
:101A70000A8987B013434A8901A813439BB2A38103
:101A8000A38A8A899BB223F440731343A3820D4631
:101A9000FFF77CFEDDE9033118482A68844208BF5D
:101AA0000B46A18903EB830308044CBF520092004C
:101AB00003EB8303B3FBF2F364251148A0FB03217E
:101AC000490905FB11330A01A18909040AD41B0144
:101AD0003233A0FB0303C3F3431313439BB22381AD
:101AE00007B030BDDB003233A0FB0303C3F3421366
:101AF00013439BB2238107B030BD00BF00380140C3
:101B00001F85EB51838921B19BB243F4005383813C
:101B1000704723F400531B041B0C8381704700BFE4
:101B2000012301F01F0CC1F34211012903FA0CF348
:101B30000DD002290CBF103014301AB102681343C3
:101B400003607047026822EA0303036070470C30A9
:101B5000F3E700BFC1F30801818070478088C0F3BC
:101B6000080070470388194214BF01200020704705
:101B70000123C1F3421201F01F0C012A03FA0CF3F6
:101B800012D0022A0CBF028A828A92B213400288C3
:101B900092B23BB10123090A8B401A4214BF0120C3
:101BA0000020704718467047828992B21340EEE7D2
:101BB0000123090A8B40DB439BB20380704700BFBF
:101BC00010B4844672B60B4C0FCCCCF80000CCF8A5
:101BD0000410CCF80820CCF80C300FCCCCF8100056
:101BE000CCF81410CCF81820CCF81C3062B610BC1D
:101BF000704700BF200500202DE9F047B2B0592200
:101C000000210DF1090002F0DDFA032140F201226A
:101C10000123AE48AE4DAF4C0090ADF80410ADF8C6
:101C200006208DF8083002AE40212046FFF79AFFCB
:101C30000028F9D0B5212046FFF78CFF402120462F
:101C4000FFF790FF0028F9D040212046FFF78AFFD8
:101C50000028F9D062212046FFF77CFF4021204672
:101C6000FFF780FF0028F9D040212046FFF77AFFD8
:101C70000028F9D006212046FFF76CFF40212046BE
:101C8000FFF770FF0028F9D040212046FFF76AFFD8
:101C90000028F9D001212046FFF75CFF40212046B3
:101CA000FFF760FF0028F9D040212046FFF75AFFD8
:101CB0000028F9D003212046FFF74CFF40212046A1
:101CC000FFF750FF0028F9D040212046FFF74AFFD8
:101CD0000028F9D000212046FFF73CFF4021204694
:101CE000FFF740FF0028F9D00DF1050717F8018F25
:101CF00040212046FFF736FF0028F9D04146204614
:101D0000FFF728FF40212046FFF72CFF0028F9D0DD
:101D1000B742EBD140212046FFF724FF0028F9D03D
:101D20000E212046FFF716FF40212046FFF71AFF3D
:101D30000028F9D040212046FFF714FF0028F9D0F1
:101D400047212046FFF706FF40212046FFF70AFF04
:101D50000028F9D00023C92785F8203085F82130E4
:101D600009E095F8213053B90120FEF72FFA7B1EC8
:101D700013F0FF0703D095F82030002BF1D095F831
:101D80002030002B3FF450AF0623524C8DF8073023
:101D900040212046FFF7E6FE0028F9D0B521204675
:101DA000FFF7D8FE40212046FFF7DCFE0028F9D0DF
:101DB00040212046FFF7D6FE0028F9D062212046B8
:101DC000FFF7C8FE40212046FFF7CCFE0028F9D0DF
:101DD00040212046FFF7C6FE0028F9D00621204604
:101DE000FFF7B8FE40212046FFF7BCFE0028F9D0DF
:101DF00040212046FFF7B6FE0028F9D001212046F9
:101E0000FFF7A8FE40212046FFF7ACFE0028F9D0DE
:101E100040212046FFF7A6FE0028F9D003212046E6
:101E2000FFF798FE40212046FFF79CFE0028F9D0DE
:101E300040212046FFF796FE0028F9D000212046D9
:101E4000FFF788FE40212046FFF78CFE0028F9D0DE
:101E50000DF1050717F8018F40212046FFF782FE9C
:101E60000028F9D041462046FFF774FE4021204665
:101E7000FFF778FE0028F9D0B742EBD14021204689
:101E8000FFF770FE0028F9D012212046FFF762FE0E
:101E900040212046FFF766FE0028F9D04021204669
:101EA000FFF760FE0028F9D04F212046FFF752FED1
:101EB00040212046FFF756FE0028F9D00023C9270D
:101EC00085F8203085F8213010E000BFB5620601AA
:101ED000200500200038014095F8213053B9012039
:101EE000FEF774F97B1E13F0FF0703D095F820303E
:101EF000002BF1D095F82030002B3FF449AF21237F
:101F0000A94C8DF8073040212046FFF72BFE002812
:101F1000F9D0B5212046FFF71DFE40212046FFF7EE
:101F200021FE0028F9D040212046FFF71BFE0028A3
:101F3000F9D062212046FFF70DFE40212046FFF731
:101F400011FE0028F9D040212046FFF70BFE0028A3
:101F5000F9D006212046FFF7FDFD40212046FFF77E
:101F600001FE0028F9D040212046FFF7FBFD0028A4
:101F7000F9D001212046FFF7EDFD40212046FFF773
:101F8000F1FD0028F9D040212046FFF7EBFD0028A5
:101F9000F9D003212046FFF7DDFD40212046FFF761
:101FA000E1FD0028F9D040212046FFF7DBFD0028A5
:101FB000F9D000212046FFF7CDFD40212046FFF754
:101FC000D1FD0028F9D00DF1050717F8018F402148
:101FD0002046FFF7C7FD0028F9D041462046FFF70D
:101FE000B9FD40212046FFF7BDFD0028F9D0B742DA
:101FF000EBD140212046FFF7B5FD0028F9D02D2177
:102000002046FFF7A7FD40212046FFF7ABFD002843
:10201000F9D040212046FFF7A5FD0028F9D0852101
:102020002046FFF797FD40212046FFF79BFD002843
:10203000F9D00023C92785F8203085F8213009E040
:1020400095F8213053B90120FEF7C0F87B1E13F03C
:10205000FF0703D095F82030002BF1D095F8203001
:10206000002B3FF450AF12234F4C8DF80730402126
:102070002046FFF777FD0028F9D0B5212046FFF76D
:1020800069FD40212046FFF76DFD0028F9D0402171
:102090002046FFF767FD0028F9D062212046FFF7B0
:1020A00059FD40212046FFF75DFD0028F9D0402171
:1020B0002046FFF757FD0028F9D006212046FFF7FC
:1020C00049FD40212046FFF74DFD0028F9D0402171
:1020D0002046FFF747FD0028F9D001212046FFF7F1
:1020E00039FD40212046FFF73DFD0028F9D0402171
:1020F0002046FFF737FD0028F9D003212046FFF7DF
:1021000029FD40212046FFF72DFD0028F9D0402170
:102110002046FFF727FD0028F9D000212046FFF7D1
:1021200019FD40212046FFF71DFD0028F9D00DF1D3
:10213000050717F8018F40212046FFF713FD0028FF
:10214000F9D041462046FFF705FD40212046FFF724
:1021500009FD0028F9D0B742EBD140212046FFF716
:1021600001FD0028F9D01E212046FFF7F3FC402195
:102170002046FFF7F7FC0028F9D040212046FFF762
:10218000F1FC0028F9D067212046FFF7E3FC40214D
:102190002046FFF7E7FC0028F9D00023C92785F87F
:1021A000203085F821300BE00038014095F82130CF
:1021B00053B90120FEF70AF87B1E13F0FF0703D086
:1021C00095F82030002BF1D095F82030002B3FF40B
:1021D0004EAF0323BF4C8DF8073040212046FFF758
:1021E000C1FC0028F9D0B5212046FFF7B3FC4021FF
:1021F0002046FFF7B7FC0028F9D040212046FFF722
:10220000B1FC0028F9D062212046FFF7A3FC402151
:102210002046FFF7A7FC0028F9D040212046FFF711
:10222000A1FC0028F9D006212046FFF793FC4021AD
:102230002046FFF797FC0028F9D040212046FFF701
:1022400091FC0028F9D001212046FFF783FC4021B2
:102250002046FFF787FC0028F9D040212046FFF7F1
:1022600081FC0028F9D003212046FFF773FC4021B0
:102270002046FFF777FC0028F9D040212046FFF7E1
:1022800071FC0028F9D000212046FFF763FC4021B3
:102290002046FFF767FC0028F9D00DF1050717F875
:1022A000018F40212046FFF75DFC0028F9D0414610
:1022B0002046FFF74FFC40212046FFF753FC002843
:1022C000F9D0B742EBD140212046FFF74BFC002864
:1022D000F9D00F212046FFF73DFC40212046FFF7B3
:1022E00041FC0028F9D040212046FFF73BFC0028A4
:1022F000F9D049212046FFF72DFC40212046FFF769
:1023000031FC0028F9D00023C92785F8203085F852
:10231000213009E095F8213053B90120FDF756FF2F
:102320007B1E13F0FF0703D095F82030002BF1D06F
:1023300095F82030002B3FF450AF582200210DF1CA
:102340006E0001F03FFF40F20622002342F21071BE
:102350000520ADF86C20ADF874304FF06412022304
:10236000ADF872105C495D4C1F915D491994594C50
:102370008DF876001A910DF18D071E928DF881303F
:102380000DF169084246CC264FF04E0912F8013F84
:102390004B445FFA83F94E449742F6B2F6D140219E
:1023A0002046FFF7DFFB0028F9D0B5212046FFF7D4
:1023B000D1FB40212046FFF7D5FB0028F9D0402172
:1023C0002046FFF7CFFB0028F9D062212046FFF717
:1023D000C1FB40212046FFF7C5FB0028F9D0402172
:1023E0002046FFF7BFFB0028F9D006212046FFF763
:1023F000B1FB40212046FFF7B5FB0028F9D0402172
:102400002046FFF7AFFB0028F9D024212046FFF734
:10241000A1FB40212046FFF7A5FB0028F9D0402171
:102420002046FFF79FFB0028F9D024212046FFF724
:1024300091FB40212046FFF795FB0028F9D0402171
:102440002046FFF78FFB0028F9D000212046FFF738
:1024500081FB40212046FFF785FB0028F9D018F8C2
:1024600001AF40212046FFF77DFB0028F9D05146FF
:102470002046FFF76FFB40212046FFF773FB002843
:10248000F9D04745EBD140212046FFF76BFB0028F0
:10249000F9D049462046FFF75DFB40212046FFF773
:1024A00061FB0028F9D040212046FFF75BFB0028A4
:1024B000F9D031462046FFF74DFB40212046FFF77B
:1024C00051FB0028F9D00023C92685F8203085F873
:1024D000213011E0003801406400C800B5620624D4
:1024E0002400FF0395F8213053B90120FDF76EFE5B
:1024F000731E13F0FF0603D095F82030002BF1D0A7
:1025000095F82030002B3FF43BAF32B0BDE8F087A8
:102510002DE9F04301219BB04FF41650FDF792FED8
:10252000FDF706FF4FF44870FDF750FE5F220021D3
:102530000DF1070001F046FE46F2B520062101220A
:102540004FF40C6500231424ADF804008DF8061038
:102550004FF416404FF001110DF10906ADF80E5081
:102560008DF80A20402532464FF01A08ADF8084091
:10257000ADF81030ADF814300DF11D07ADF81200B4
:10258000CDF8161012F8013F43445FFA83F8454432
:10259000BA42EDB2F6D140215548FFF7E3FA0028E0
:1025A000F9D0B5215248FFF7D5FA514C40212046C9
:1025B000FFF7D8FA0028F9D040214D48FFF7D2FAAA
:1025C0000028F9D062214A48FFF7C4FA484C40215C
:1025D0002046FFF7C7FA0028F9D040214448FFF70A
:1025E000C1FA0028F9D006214148FFF7B3FA404C60
:1025F00040212046FFF7B6FA0028F9D040213C4898
:10260000FFF7B0FA0028F9D000213948FFF7A2FA05
:10261000374C40212046FFF7A5FA0028F9D0402189
:102620003348FFF79FFA0028F9D014213048FFF70C
:1026300091FA2F4C40212046FFF794FA0028F9D058
:1026400040212B48FFF78EFA0028F9D000212848B6
:10265000FFF780FA264C40212046FFF783FA002836
:10266000F9D0234C16F8019F40212148FFF77AFA50
:102670000028F9D049462046FFF76CFA4021204651
:10268000FFF770FA0028F9D0BE42EBD1402118487C
:10269000FFF768FA0028F9D041461548FFF75AFAC3
:1026A000134C40212046FFF75DFA0028F9D0402165
:1026B0000F48FFF757FA0028F9D029460C48FFF7D2
:1026C00049FA0B4C40212046FFF74CFA0028F9D07C
:1026D0000A20FDF77BFD01214FF41640FDF7B2FD06
:1026E0000A20FDF773FD1BB0BDE8F043FFF784BA85
:1026F00000380140F0B490F802C0C77884880CEB31
:102700000703DBB21919C9B20CEB03020A4401EB4F
:102710001421C9B20A44851DD2B24CB10023EE5C2B
:1027200001333144C9B2DBB20A449C42D2B2F6D87A
:102730002B5D25448B4205D03D4A938B0133938317
:10274000F0BC70476B789342F6D1BCF1010F0BD00F
:10275000BCF1050FF4D1012F66D0002FF0D101227A
:10276000334B83F82120EBE7072F0ED0022F2AD01E
:10277000032F36D0062F41D0212F4DD0122FDFD17D
:102780002B4BD0F81A20DA60DAE7294B827ED0F89A
:102790002A401A75D0F81E20598B5A600022467FB5
:1027A000057C01319C6066F30702C47B598365F3A5
:1027B0000F22817B64F31742D0F8220061F31F627D
:1027C00018601A61BCE71A4BD0F80A405A8BD0F84F
:1027D0001610D0F80E0001325C6018605A839960C0
:1027E000AEE7C27A124B02F001025A75427B598B56
:1027F00002F00302013159839A75A1E7017C0C4B69
:1028000090F8352019751A7490F8322090F833102A
:1028100042EA01221A8393E7054B847DC17D027E43
:10282000DC7499745A748BE7014B83F8207087E746
:102830002005002010B5214C94F8232094F8223074
:1028400082B93BB1012B01D162282FD0002384F83B
:10285000223010BDB528F9D1012384F8240084F872
:10286000223010BDE218042B82F8240010D9228DEA
:10287000591E083291420FD00133DBB2632B89BF5E
:10288000002384F8223084F8223084F8233010BDED
:10289000013384F8223010BD04F12400FFF72AFF31
:1028A000002384F8223084F8233010BD022284F8FB
:1028B000233084F8250084F8222010BD2005002054
:1028C00070B508460D46144601F0F0FB10F0FF000D
:1028D0004AD04FF0000C05F1FF3E63462025461E0E
:1028E0000DE02D2908BF20215A1C6645E154D3B2C2
:1028F00009D00CF1010C5FFA8CF2904233D91EF82A
:10290000011F2C29EDD1062B31D8C3F10702D2B219
:10291000591C012AE554C9B21DD06554022A03F19D
:102920000201C9B217D06554032A03F10301C9B2E9
:1029300011D06554042A03F10401C9B20BD06554C7
:10294000052A03F10501C9B205D06554991DC9B224
:10295000062A18BF65541A440CF1010CD3B25FFA71
:102960008CF29042CBD81C440023237070BDA3F19D
:102970000802052A03D8C3F10E02D2B2C8E7A3F1B8
:102980000F02052AB5D8C3F11502D2B2C0E700BFC5
:102990002DE9F84F264F4FF0190C01250446C0F8D9
:1029A0006E710027DFF88CE080F86811CEF8040023
:1029B000A0F8045180F802C0C27080F86A511E4627
:1029C0009DF828B0DDF82CA09DF83080DDF834901B
:1029D000FDF71AFE184884F86C71FEF73BF92A4699
:1029E0004FF0203539467120FEF706F96420FDF7D7
:1029F00045FE3146C4F80651A4F80A5104F5837027
:102A000001F082FB514684F80CB1C4F80D51A4F8D2
:102A1000115104F20D1001F077FB84F8138149463F
:102A2000204604F58A72BDE8F84FFFF749BF00BFA2
:102A300089011B03AC050020645BD94310B590F8F5
:102A40006B310446D3B100234FF40041104884F8A1
:102A50006B31FEF7CDFD4FF080420021138823F04B
:102A600001031B041B0C1380B4F86E319385918411
:102A700013889BB243F00103138010BD01234FF470
:102A80000041034884F86B31FEF7B0FDE3E700BF77
:102A9000000C0140144A002392E80300052230B5DF
:102AA000124C89B025880490ADF8141004ACCDF810
:102AB0001630CDF81A308DF81E30A552204601F0A0
:102AC000F5FA05280246F8D90022302507210848E2
:102AD000009103900748234601901146064802954D
:102AE000FFF756FF09B030BDE843000878430008FF
:102AF000644300086C430008B40500200148FFF758
:102B00009DBF00BFB4050020014B93F86C017047D6
:102B1000B405002080F0004002E000BF81F00041D9
:102B200042001FBF5FEA410392EA030F7FEA226C73
:102B30007FEA236C6AD04FEA1262D2EB1363C1BF03
:102B4000D218414048404140B8BF5B42192B88BF72
:102B5000704710F0004F40F4000020F07F4018BF95
:102B6000404211F0004F41F4000121F07F4118BFB5
:102B7000494292EA030F3FD0A2F1010241FA03FC5D
:102B800010EB0C00C3F1200301FA03F100F0004345
:102B900002D5494260EB4000B0F5000F13D3B0F10D
:102BA000807F06D340084FEA310102F10102FE2A7C
:102BB00051D2B1F1004F40EBC25008BF20F00100EC
:102BC00040EA03007047490040EB0000013A28BF8B
:102BD000B0F5000FEDD2B0FA80FCACF1080CB2EB0E
:102BE0000C0200FA0CF0AABF00EBC250524218438C
:102BF000BCBFD0401843704792F0000F81F4000131
:102C000006BF80F400000132013BB5E74FEA410303
:102C10007FEA226C18BF7FEA236C21D092EA030F6F
:102C200004D092F0000F08BF0846704790EA010FE9
:102C30001CBF0020704712F07F4F04D1400028BF16
:102C400040F00040704712F100723CBF00F50000F8
:102C5000704700F0004343F0FE4040F4000070472E
:102C60007FEA226216BF08467FEA236301464202DA
:102C700006BF5FEA412390EA010F40F480007047ED
:102C80004FF0000304E000BF10F0004348BF404293
:102C90005FEA000C08BF704743F0964301464FF0CF
:102CA00000001CE050EA010208BF70474FF000032B
:102CB0000AE000BF50EA010208BF704711F000436C
:102CC00002D5404261EB41015FEA010C02BF84463C
:102CD0000146002043F0B64308BFA3F18053A3F59B
:102CE0000003BCFA8CF2083AA3EBC25310DB01FAE2
:102CF00002FC634400FA02FCC2F12002BCF1004F66
:102D000020FA02F243EB020008BF20F001007047F6
:102D100002F1200201FA02FCC2F1200250EA4C004A
:102D200021FA02F243EB020008BF20EADC70704790
:102D30004FF0FF0C1CEAD0521EBF1CEAD15392EA9E
:102D40000C0F93EA0C0F6FD01A4480EA010C40027A
:102D500018BF5FEA41211ED04FF0006343EA5010D4
:102D600043EA5111A0FB01310CF00040B1F5000F16
:102D70003EBF490041EAD3715B0040EA010062F1C5
:102D80007F02FD2A1DD8B3F1004F40EBC25008BFAF
:102D900020F00100704790F0000F0CF0004C08BFCD
:102DA00049024CEA502040EA51207F3AC2BFD2F19A
:102DB000FF0340EAC250704740F400004FF00003A8
:102DC000013A5DDC12F1190FDCBF00F000407047E2
:102DD000C2F10002410021FA02F1C2F1200200FA20
:102DE00002FC5FEA310040F1000053EA4C0308BFE7
:102DF00020EADC70704792F0000F00F0004C02BF38
:102E0000400010F4000F013AF9D040EA0C0093F0B2
:102E1000000F01F0004C02BF490011F4000F013B0C
:102E2000F9D041EA0C018FE70CEAD15392EA0C0F7A
:102E300018BF93EA0C0F0AD030F0004C18BF31F0E5
:102E4000004CD8D180EA010000F00040704790F0BB
:102E5000000F17BF90F0004F084691F0000F91F05F
:102E6000004F14D092EA0C0F01D142020FD193EA25
:102E70000C0F03D14B0218BF084608D180EA0100AD
:102E800000F0004040F0FE4040F40000704740F089
:102E9000FE4040F4400070474FF0FF0C1CEAD05257
:102EA0001EBF1CEAD15392EA0C0F93EA0C0F69D0B3
:102EB000A2EB030280EA010C49024FEA402037D01E
:102EC0004FF0805343EA111143EA10130CF0004015
:102ED0008B4238BF5B0042F17D024FF4000C8B4205
:102EE00024BF5B1A40EA0C00B3EB510F24BFA3EBE5
:102EF000510340EA5C00B3EB910F24BFA3EB9103B5
:102F000040EA9C00B3EBD10F24BFA3EBD10340EA0E
:102F1000DC001B0118BF5FEA1C1CE0D1FD2A3FF654
:102F200050AF8B4240EBC25008BF20F00100704709
:102F30000CF0004C4CEA50207F32C2BFD2F1FF03AC
:102F400040EAC250704740F400004FF00003013ADD
:102F500037E792F0000F00F0004C02BF400010F481
:102F6000000F013AF9D040EA0C0093F0000F01F095
:102F7000004C02BF490011F4000F013BF9D041EAB7
:102F80000C0195E70CEAD15392EA0C0F08D14202EA
:102F90007FF47DAF93EA0C0F7FF470AF084676E7BD
:102FA00093EA0C0F04D14B023FF44CAF08466EE796
:102FB00030F0004C18BF31F0004CCAD130F0004264
:102FC0007FF45CAF31F000437FF43CAF5FE700BFBC
:102FD0004FF0FF3C06E000BF4FF0010C02E000BFE5
:102FE0004FF0010C4DF804CD4FEA40024FEA410387
:102FF0007FEA226C18BF7FEA236C11D001B052EA3D
:10300000530C18BF90EA010F58BFB2EB030088BF02
:10301000C81738BF6FEAE17018BF40F00100704771
:103020007FEA226C02D15FEA402C05D17FEA236C53
:10303000E4D15FEA412CE1D05DF8040B704700BF9A
:10304000844608466146FFE70FB5FFF7C9FF002831
:1030500048BF10F1000F0FBD4DF808EDFFF7F4FF6A
:103060000CBF012000205DF808FB00BF4DF808ED03
:10307000FFF7EAFF34BF012000205DF808FB00BF26
:103080004DF808EDFFF7E0FF94BF012000205DF848
:1030900008FB00BF4DF808EDFFF7D2FF94BF0120F9
:1030A00000205DF808FB00BF4DF808EDFFF7C8FFF2
:1030B00034BF012000205DF808FB00BF42000ED2A3
:1030C000B2F1FE4F0BD34FF09E03B3EB126209D463
:1030D0004FEA002343F0004323FA02F070474FF019
:1030E0000000704712F1610F01D1420202D14FF08E
:1030F000FF3070474FF00000704700BF03685A0070
:103100004CBF43F0004323F000431844704700BF16
:103110002DE9F04741B301F1FF3805461646474611
:103120000024E11901EBD171491005EBC10A5046A9
:10313000FFF7E4FF884503464FEAC1090ED009F1C5
:103140000800B34228440BD8FFF7D8FF0138B0423B
:1031500001F10104E5D35046BDE8F087B042FAD949
:103160008C4201D04F1EDCE74FF0000A5046BDE80C
:10317000F08700BF012809D0022805D0044B0028A1
:103180000CBF18460020704702487047024870473D
:10319000653800086D3800086938000830B5224BE2
:1031A000044683B08D1E3BB3284601A9AFF30080CF
:1031B000E8B101992A46FFF7ABFF0146B8B1FFF726
:1031C0009DFF4B68A064012B2BD0002B26DB081D34
:1031D000FFF794FF002323650368E064002B12DBF4
:1031E000FFF78CFF03460020236103B030BD0023AE
:1031F0000920236103B030BD0C4B0D491846C91A94
:10320000C9100191D6E7C3F30360FFF7B3FF031EB4
:103210000CBF09200020236103B030BD0123081D2D
:10322000D9E700230520DFE7000000001044000874
:10323000E8440008036810B5DA07044606D49B0783
:1032400000F1500009D500F09DFC2368590709D50D
:103250001A070ED5DB0613D510BD00F08BFC2368D2
:103260005907F5D404F1D80000F094FC23681A073C
:10327000F0D404F5AC7000F095FC2368DB06EBD4C9
:1032800004F5EC70BDE8104000F0D0BC03460068C7
:1032900000B11844704700BF09207047704700BF55
:1032A00070B504460E462046316CFFF777FF0546A1
:1032B00098B9D6F840C03246214601202369C4F8A7
:1032C00014C098470828EED0072806D12846316C4C
:1032D000FFF7E4FF301D00F041FCFFDE2DE9F04771
:1032E0004FF0000AADF5767D0DF10C0E01F1040CE6
:1032F000C768D0F8188006461446BCE80F00AEE850
:103300000F00BCE80F00AEE80F00BCE80F00AEE80D
:103310000F009CE80F0002AD8EE80F00C5F800A07A
:1033200021E02B6C4FF4F472294673617CA800F005
:1033300099FF3146504633697CAA98478A9C824659
:10334000AC640120334632464946CDE90058B847BF
:10335000044630BB4FF4F47228467CA900F082FF8B
:10336000BAF1080F1AD13046296CFFF717FF04F1A4
:1033700009095FFA89FA04460028D2D0A96B3346BE
:10338000A96432460120CDE900584AF01001B8473F
:1033900038B920460DF5767DBDE8F087BAF1070F04
:1033A00005D0092420460DF5767DBDE8F08720463E
:1033B000296CFFF773FF03A800F0D0FB806C704707
:1033C000F0B54FF0FF37CB6BFBB00B6401AC01F1F4
:1033D000040C0E460546BCE80F000FC4BCE80F0005
:1033E0000FC4BCE80F000FC49CE80F0084E80F0076
:1033F000009706E06A4629462B6998470828044644
:1034000008D128461099FFF7C9FE0028F2D00920FC
:103410007BB0F0BD6846FFF70DFF062CF7D13146B3
:103420002846FFF73DFF00BF10B414468461DC6BF3
:10343000C16000221C64194610BC4FE770B5436997
:10344000C6680B64AEB90A46036904460D460146D8
:1034500002209847072805D008280ED12946204683
:10346000FFF71EFF3046296CFFF718FF281D00F0FC
:1034700075FB0122FFF732FFFFDEFFDEC2682AB1D3
:10348000D1F83CC00022C1F840C027E798E700BF50
:10349000704700BF836801460BB101201847704791
:1034A000052915D8DFE801F00A03140303050120FC
:1034B0007047436C009A00201360704743B90F2A8D
:1034C00006D800EB82025368009A00201360704710
:1034D00002207047002300B585B00A4603A9009179
:1034E0001946FFF7DDFF039805B05DF804FB00BF48
:1034F000052915D8DFE801F00A03140303050120AC
:103500007047009B1B6843640020704743B90F2A33
:1035100006D8009B00EB82021B68002053607047B6
:1035200002207047002310B584B003AC03920094CE
:103530000A461946FFF7DCFF04B010BD70B54FF026
:10354000FF36D36BADF5107D13640DF15C0E02F107
:10355000040C05460C46BCE80F00AEE80F00BCE8C2
:103560000F00AEE80F00BCE80F00AEE80F009CE8CB
:103570000F008EE80F00169612E00C2116A86A467E
:10358000FFF7D0FF214616A8A84778B9694608205A
:10359000049B16AA98470528064608D0092805D096
:1035A00068462699FFF7FAFD0028E6D0092616A8F6
:1035B000FFF740FE30460DF5107D70BD2DE9F04F50
:1035C0001646CA6C0D4652F8041B89B000F0030C75
:1035D0000692002B79D002240F0C8DF81D7009047F
:1035E000FFB2059102EB8702296DBCF1020F08BF03
:1035F000AA6B11F001088DF81C4009D0304605A9CE
:1036000000F0AEFB002856D1082009B0BDE8F08FCD
:103610001768002FF2D0E3469A4600F00801CDE982
:103620000118BAF1020F4CD01788548802F104092E
:10363000AA6C24F001030F21304603EB0208FFF7C8
:1036400049FF80453BD827F0010202EB0803834283
:1036500094BF00230123640004F0020407F0010773
:103660002743012F4ED0022F35D027BBBBF1000FCF
:1036700002D0002B40F0D48009F104021768002F1B
:10368000CFD1304605A9DDF8088000F069FB90B97C
:10369000B8F1000FB8D00F213046FFF71BFF0E2105
:1036A00002463046FFF73EFF0F2130466C4AFFF7D7
:1036B00039FF072000E0092009B0BDE8F08F0023A2
:1036C000C9E7546802F10809B2E709020324059129
:1036D0008DF81D3088E7D9F8004024F00048BBF190
:1036E000000F47D12BB1019B002B5CD0B8F1000F2C
:1036F00059D0002C01DA09F1040908F1010209EBA3
:103700008202BBE7BBF1000F1CD1C3B1D9F8043072
:10371000D9F80020991C4FEAD272CCD005F1580498
:103720000133049400F08F8009F10400FFF7AEFD2F
:1037300004AB01462846AFF30080002859D109F1B7
:1037400008029BE70D213046FFF7C4FE2C6A844235
:10375000F5D1AB6A9945F2D14846FFF7CFFC0F216E
:1037600002463046FFF7DEFE2A4600213046FFF7CC
:10377000D9FE9EE70D213046FFF7ACFE2F6A874247
:10378000B7D1AB6A9945B4D100240423C5E90B43F2
:103790004B44C5F828806B63D9F80030A34259DB4D
:1037A00001230293A9E705F15803CDF80CB00024DA
:1037B000B34609F104071E460BE038460496FFF7AE
:1037C00065FD0022014604AB2846AFF300800437B4
:1037D00000BB444504F10104EFD10D215846FFF729
:1037E00079FE0246049B0620C5E90823C5F8289007
:1037F00062E704460D213046FFF76CFE049E022C62
:1038000008BFEE62286208BF05F12C060620C5E954
:10381000096951E75E46D9F80040DDF80CB068E769
:103820004846FFF76BFC09F104020446AA632846E8
:10383000AFF3008000283FF43EAF22460F21304610
:10384000FFF770FE35E730460D21FFF743FE2646B1
:103850002862DBE708F1010209EB82007DE700BF87
:10386000000000000023A9E60123A7E60223A5E645
:103870002DE9F04105461446C4B0052900F2D78071
:10388000DFE811F012002A00D50069009000060060
:10389000836B002C40F0CB8053F8042B426483638D
:1038A000002044B0BDE8F081002B40F0C0804FF014
:1038B000010E816B2A1DA0B20EFA03FC1CEA000F58
:1038C0001CBF51F8046B42F823600133102BF3D175
:1038D000A004E5D4A963E3E7012B4FEA1447A4B29F
:1038E00000F08580052B40F0A28007EB0408B8F1BA
:1038F000200F00F29C800F2F40F29B80002CCFD035
:103900000268560700F11A81019302AE304600F0BA
:1039100045F94FEA440CA7F11002A86B019B0CF18A
:10392000FF3C06EBC2020CF1010C043A00EB8C01E7
:1039300050F8044B884242F8044FF9D1012B00F0B3
:10394000E0800F2FA86302D822A800F01BF93046B0
:1039500000F020F9A4E7032B69D11FFA84F808EBE3
:103960001443102B4FEA144461D80368180700F180
:10397000C08022AE304600F037F94FEA4801AF6B05
:1039800006EBC4024B1E41B1B81A1158013B42F874
:10399000041B591CF9D107EBC8073046AF6300F090
:1039A00001F97DE7002B42D1102C40D80368DE06D8
:1039B00000F1978022AE304600F042F90127002343
:1039C0003046A96B07FA03F2224203F1010305D046
:1039D0000A4652F804CB1146C0F800C0042B00F18F
:1039E0000400EFD13046A96300F020F958E73A19F6
:1039F000102A1CD8102F1AD00268D00708D52846E4
:103A000022F0030240F8502B019300F0B7F8019B1D
:103A100022AE3046019300F0B1F8A96B019B002C57
:103A200058D104313046A96300F0A4F838E70220E9
:103A300037E7B8F1100F026865D9D10772D522F0C7
:103A4000010242F0020240F8502B019300F09EF870
:103A50002A68019B12F0040F66D122AE3046019312
:103A600000F094F802A800F099F8C7F11002520093
:103A7000A96B019B541EA8F1100C06EBC702013480
:103A8000043A01EB840051F8044B814242F8044FA0
:103A9000F9D1BCF1000F59D0102F3A4638BF10228F
:103AA0004FEA4C0C02AE103A0CF1FF3C06EBC2029E
:103AB00039E7284622F0010242F0020240F8502B7A
:103AC00022AE019300F062F8304600F05FF8A96B77
:103AD00024B3019B64004FF0000C013C06EBC702CD
:103AE000CDE723F01003036000F5EC7000F0A8F8B8
:103AF00060E723F008032B6005F5AC7000F074F864
:103B000037E722AE8DE7D107D3D422AE30460193FA
:103B100000F03CF8A96B019B002CDBD1304600F093
:103B200031F8BDE6540798D5284622F0040240F843
:103B3000D82B019300F032F8019B8EE722F00402AB
:103B400040F8D82B019300F029F8DEE6012B3FF472
:103B500068AF0F2FA9633FF6A3AEDFE700F1340192
:103B600091E838009C46A6464CF8045D90E8FF0FAB
:103B7000E54600BD90EC210B704700BF80EC210BA7
:103B8000704700BF90EC200B704700BF80EC200B0B
:103B9000704700BFD0EC200B704700BFC0EC200B7B
:103BA000704700BFF0EC0201F0EC0211F0EC0221D2
:103BB000F0EC0231F0EC0241F0EC0251F0EC026169
:103BC000F0EC0271F0EC0281F0EC0291F0EC02A159
:103BD000F0EC02B1F0EC02C1F0EC02D1F0EC02E149
:103BE000F0EC02F1704700BFE0EC0201E0EC0211E2
:103BF000E0EC0221E0EC0231E0EC0241E0EC0251A9
:103C0000E0EC0261E0EC0271E0EC0281E0EC029198
:103C1000E0EC02A1E0EC02B1E0EC02C1E0EC02D188
:103C2000E0EC02E1E0EC02F1704700BFB0FC018182
:103C3000B0FC0191B0FC01A1B0FC01B1704700BF24
:103C4000A0FC0181A0FC0191A0FC01A1A0FC01B19C
:103C5000704700BFEC4600B52DE900502DE9FF1F6D
:103C60004FF000032DE90C0001A9FFF7A9FBDDF8D7
:103C700040E012B0704700BFEC4600B52DE900509F
:103C80002DE9FF1F4FF000032DE90C0001A9FFF7FC
:103C9000D5FBDDF840E012B0704700BFEC4600B540
:103CA0002DE900502DE9FF1F4FF000032DE90C0016
:103CB00001A9FFF7E3FBDDF840E012B0704700BF59
:103CC000EC4600B52DE900502DE9FF1F4FF0000331
:103CD0002DE90C0001ABFFF7A7FBDDF840E012B0C7
:103CE000704700BFEC4600B52DE900502DE9FF1FDD
:103CF0004FF000032DE90C0001AAFFF71FFCDDF8CF
:103D000040E012B0704700BF027A03467AB9427AA7
:103D1000A2B14FF0030C4168013A427208680A1DD3
:103D20005A60020283F808C0000E1A6070470068EB
:103D3000013A1A7202021A60000E7047B0207047F2
:103D4000002300B585B003A900910C221946FFF7A6
:103D5000A7FB039805B05DF804FB00BFF0E700BFC8
:103D60002DE9F0434FF0000806460D4685B0284681
:103D7000FFF7CAFFB028044600F0128107065CD5A1
:103D800000F0F003A02B1AD030D8802B00F08380F5
:103D9000902B27D100F00D030D2B23D0002302AF71
:103DA000194600F00F0200973046FFF779FB002319
:103DB0000D22194630460097FFF79AFBD7E7C34319
:103DC0004FF47F6203F007031A41010702F47F6298
:103DD00001D542F48042002330461946FFF748FDE2
:103DE0000028C4D0092005B0BDE8F083B02B69D00D
:103DF000C02B3ED1C62800F0BF80C72800F0D58078
:103E000000F0F803C02B00F0E280C82800F0ED803D
:103E1000C928E7D12846FFF777FF0523012104468B
:103E2000220304F00F0402F470220C4430462243B3
:103E3000FFF71EFD00289AD0D4E78300DBB21F1DD8
:103E400000230DF1080919460D223046CDF80090E7
:103E5000FFF726FB029B60064CBFDF1BFF18002309
:103E60000D2230461946CDF800900297FFF740FB2F
:103E70007DE700F0F803D02BB4D100F00702013247
:103E800005230121304642F40022FFF7F1FC00280F
:103E90003FF46DAFA6E72846FFF736FF2402204324
:103EA000B0F5004F9ED00023040119463046A2B25F
:103EB000FFF7DEFC002895D114F4004F18BF4FF037
:103EC000010854E7A0F1B103042B00F2B380DFE84E
:103ED00003F0491D160C0300002303AA009230468C
:103EE0000D221946FFF7DCFA41E700230521304691
:103EF0001A46FFF7BDFC00283FF439AF72E72846A9
:103F0000FFF702FF01230446194689E700230DF15C
:103F100008090D2219463046CDF80090FFF7C0FA87
:103F20002846FFF7F1FE02064FF00207029C0BD570
:103F300000F07F00B840044428460294FFF7E4FEF6
:103F4000030607F10707F3D40023B84004F5017412
:103F500004440D2230461946CDF800900294FFF734
:103F6000C7FA04E72846FFF7CFFE431EDBB20E2B4D
:103F700002467FF630AF35E72846FFF7C5FE044618
:103F80000323220304F00F0402F4702201341946C3
:103F900030462243FFF76CFC00283FF4E8AE21E7EF
:103FA000B8F1000F36D000201DE72846FFF7ACFE21
:103FB000431EDBB20E2B02463FF614AF0023042152
:103FC0003046FFF755FC00283FF4D1AE0AE7032343
:103FD00000F00F0201323046194642F42022FFF76A
:103FE00047FC00283FF4C3AEFCE62846FFF78CFEF2
:103FF0000246012102F0F00402F00F0210340A44DC
:104000000523304642EA0432FFF732FC00283FF431
:10401000AEAEE7E602AC434641460E22304600947F
:10402000FFF73EFA0F224346414630460094FFF721
:104030005FFAB8E700F0FC03B42B3FF4D3AE0123E2
:1040400000F007021A443046194642F40022FFF7F6
:104050000FFC00283FF48BAEC4E600BF0B464FF0C8
:10406000030C00B5C26C1846536885B00832029242
:1040700001A91A0E1B028DF80CC001938DF80D20BA
:10408000FFF76EFE05B05DF804FB00BF08B5FFF753
:1040900065FE806C08BD00BF08B5FFF75FFEC06C11
:1040A000C37900EB8300083008BD00BF20F0030196
:1040B00010F00300C0F1000051F8043B00F1040CC3
:1040C0004FEACC0C6FF000021CBF22FA0CF2134333
:1040D0004FF0010C4CEA0C2C4CEA0C4CA3EB0C02FC
:1040E00022EA030212EACC1204BF51F8043B043066
:1040F000F4D0C2F1000102EA0102B2FA82F2C2F186
:104100001F0200EBD200704780EA0102844612F0E1
:10411000030F4FD111F0030F32D14DF8044D11F0C0
:10412000040F51F8043B0BD0A3F101329A4312F073
:10413000803F04BF4CF8043B51F8043B16D100BF4C
:1041400051F8044BA3F101329A4312F0803FA4F1DD
:1041500001320BD14CF8043BA24312F0803F04BF64
:1041600051F8043B4CF8044BEAD023460CF8013BD1
:1041700013F0FF0F4FEA3323F8D15DF8044B70477B
:1041800011F0010F06D011F8012B0CF8012B002AB9
:1041900008BF704711F0020FBFD031F8022B12F0A8
:1041A000FF0F16BF2CF8022B8CF8002012F47F4F63
:1041B000B3D1704711F8012B0CF8012B002AF9D16B
:1041C000704700BF70B5860747D0541E002A3ED006
:1041D0000346CAB201E0013C39D303F8012B9D0725
:1041E000F9D1032C2CD9CDB205EB05250F2C1A469D
:1041F00005EB054534D9A4F1100C2CF00F0603F1A2
:10420000100EB6444FEA1C1CC2E90055C2E9025523
:1042100010327245F8D10CF1010214F00C0F03EBCF
:10422000021204F00F0C13D0ACF1040323F00303CB
:104230000433134442F8045B9342FBD10CF00304B3
:104240002CB1C9B21C4403F8011BA342FBD170BDC1
:1042500064461346002CF4D1F9E703461446C0E740
:10426000A446E1E7844641EA000313F0030349D181
:10427000403A23D30B6803604B6843608B688360CC
:10428000CB68C3600B6903614B6943618B698361D0
:10429000CB69C3610B6A03624B6A43628B6A8362B8
:1042A000CB6AC3620B6B03634B6B43638B6B8363A0
:1042B000CB6BC36340304031403ADBD230320BD35A
:1042C0000B6803604B6843608B688360CB68C36096
:1042D00010301031103AF3D20C3205D351F8043BB0
:1042E00040F8043B043AF9D2043208D0D2071CBF8C
:1042F00011F8013B00F8013B01D30B8803806046B5
:10430000704700BF082A13D38B07B1D010F0030306
:10431000AED0C3F10403D21ADB071CBF11F8013B76
:1043200000F8013BA4D331F8023B20F8023B9FE7A1
:10433000043AD9D3013A11F8013B00F8013BF9D214
:104340000B7803704B7843708B78837060467047AE
:10435000000000000102030401020304060708092B
:104360000204060857494445312D310041505A5145
:104370004150000000000000200000003A54455366
:1043800054313233343536373839300020525334D3
:10439000312042616C6C6F6F6E000000202573004D
:1043A000202177256325632100000000212530327C
:1043B00064253032642E2530327525632F25303345
:1043C00064253032752E2530327525634F2F413DDF
:1043D0002530366C642F502564532564542564566B
:1043E0002564257300000000444637504E0000004D
:0743F00000000000000000C6
:1043F80008B10181B0B000840000000008B101815B
:08440800B0B0008400000000C8
:10441000B0E4FF7F0100000078E5FF7FAF08B180C6
:104420001CE6FF7FB0B0A8806CE6FF7FB0A90880D3
:10443000CCE6FF7F0100000064EDFF7FB0A90280A1
:10444000F4EDFF7FB0B0A88044EEFF7F01000000D4
:1044500050EEFF7FB0B0AA8084EEFF7FAE75B280D1
:104460005CEFFF7F0100000058EFFF7FAB3F3A8019
:10447000B8EFFF7F01000000C4EFFF7FB0B0AA805B
:10448000FCEFFF7F01000000B4F0FF7FAA0FB280B5
:104490002CF1FF7FB0AF0880CCF3FF7F010000005C
:1044A000D0F3FF7FAC3F0380B4F6FF7F0100000034
:1044B00090F8FF7F00840480A4F8FF7F01000000D3
:1044C000A0F8FF7FB0AD048094FBFF7F00840480E0
:1044D000BCFBFF7F24FFFF7FC0FBFF7F28FFFF7F28
:0844E000CCFBFF7F010000008E
:1044E800070000000A000000010000005552434187
:1044F8004C4C00000000000000000000AB1201015D
:08450800D00700004E00000086
:0400000508000000EF
:00000001FF
