:020000040800F2
:10000000380D0020290100082501000825010008FD
:100010002501000825010008250100080000000056
:1000200000000000000000000000000025010008A2
:100030002501000800000000250100082501000836
:1000400025010008250100082501000825010008F8
:1000500025010008250100082501000825010008E8
:1000600025010008250100082501000825010008D8
:1000700025010008250100082501000825010008C8
:1000800025010008250100082501000800000000E6
:100090000000000000000000000000002501000832
:1000A0002501000825010008250100082501000898
:1000B000D90C00081D0200082501000825010008D0
:1000C0002501000825010008250100082501000878
:1000D00025010008E10B00082501000825010008A2
:1000E0002501000825010008250100080000000086
:1000F0000000000000000000000000000000000000
:1001000000000000000000000000000000000000EF
:100110000000000000000000250100082501000883
:100120005FF808F1FEE700BF0C480D4A08B59042A1
:1001300007D2013A121A22F003020A49043205F0EA
:10014000B3FB094809494FF000028842B8BF40F8A4
:10015000042BFADBBDE8084001F01CB800000020C9
:1001600050010020D86F0008500100203409002001
:1001700030B5012185B0022001F064FF002102208A
:1001800001F06CFF002505230E4C01A92046CDE9A6
:1001900001358DF80C5001F0BFFF2046012102F01F
:1001A00047F801222046114602F028F8064B68461F
:1001B000009301F0A9FA2946204602F011F805B093
:1001C00030BD00BF000400401D00010100B3F8B5C0
:1001D0000027104C104D461E0021284602F000F862
:1001E0004FF47A71284602F015F80021284602F0F3
:1001F0000FF80121284601F0F3FF27702378002B28
:10020000FCD00021284601F0EBFF013EE4D2F8BD0E
:10021000704700BF500100200004004008B50121D4
:10022000064801F0F9FF00B908BD0121034801F0BB
:10023000FFFF0122024B1A7008BD00BF00040040FE
:1002400050010020164991F800C04B780CF10102D2
:10025000D2B20A70C3B9012A19D000B50CF1FF3E21
:10026000BEF1060F07D80378023A134103F00103E9
:1002700018465DF804FBACF10802012A09D90B709D
:10028000022318465DF804FB013B4B70012318461E
:1002900070470CF1020C012381F800C0E8E700BFB1
:1002A000510100202DE9F047884608F1070323F0AB
:1002B000070300AFADEB030D0021064691466846EB
:1002C000424605F01FF933484FEAC8044388A4B2F8
:1002D0009C426D4656D90230194630F8023FA3427F
:1002E000FAD3B9F1000F26D14A46CC46B2FBF4F05E
:1002F00004FB10204FEADC03F35C0CF0070E43FA1A
:100300000EF34FEAD00E15F80E9003F0010300F043
:1003100007000CF1010C834043EA090364450A44D9
:1003200005F80E30E2D142462946304605F0BCFAC7
:10033000BD46BDE8F08700200246B0FBF4FA04FB9E
:100340001A0A4FEADA03F35C0AF0070A4FEAD20C02
:1003500043FA0AF315F80CE002F0070903F0010371
:10036000013203FA09F343EA0E039442084405F804
:100370000C30E2D142462946304605F095FABD469A
:10038000BDE8F087002CCED00188B9F1000FD2D1A2
:10039000AAE700BF00000020D04B2DE9F04FD700A6
:1003A000144683FB0732FB17C3EB620303EB4302E4
:1003B000B7EB820F18BF013303EB830203EB420359
:1003C00007F1100213441A46002BB8BFDA1D064687
:1003D0004FEAE20B5A0742F2244326F8023B054655
:1003E0002246304683B018BF0BF1010B884605F05A
:1003F0005BFA002F06EB040E40F33B81002140F630
:1004000075490B460C468C46CDE9006BDFF8D0A24F
:1004100004E067454FEA420300F090806FEA0C0663
:100420004FEAEC020CF1010CAAFB0CB018F8022008
:10043000C00806F0070600EB4000324102F001025E
:10044000BCEB800042EA0302E3D1D202B2F5006FB6
:1004500080F248810646C2F380231943631C13F0DF
:1004600007030CBF0EF8011B4B00C2F340211943D8
:10047000A31C13F007030CBF0EF8011B4B00C2F3C3
:1004800000211943E31C13F007030CBF0EF8011BF6
:100490004B00C2F3C0111943231D13F007030CBF17
:1004A0000EF8011B4B00C2F380111943631D13F0BA
:1004B00007030CBF0EF8011B4B00C2F34011194398
:1004C000A31D13F007030CBF0EF8011B4B00C2F372
:1004D00000111943E31D13F007030CBF0EF8011BB5
:1004E0004B00C2F3C001194314F007030CBF0EF810
:1004F000011B4B00C2F38001194304F1090313F0FF
:10050000070318BF4B00C2F3400242EA030204F1A2
:100510000A0308BF0EF8011B0B345B070CBF0EF873
:10052000012B46EA420614F007030BBF19460023CD
:100530000EF8016B710067457FF470AFDDE9006B69
:10054000002800F0E7805B101A03B2F5006F13DBA0
:100550004FF4800340F67547134208BF5B10FBD091
:100560001846002BB8BF03F2FF70C01207FB00F063
:100570004240B2F5006FEFD2C2F380231943631CEF
:1005800013F007030CBF0EF8011B4B00C2F3402110
:100590001943A31C13F007030CBF0EF8011B4B00FB
:1005A000C2F300211943E31C13F007030CBF0EF83C
:1005B000011B4B00C2F3C0111943231D13F00703A5
:1005C0000CBF0EF8011B4B00C2F380111943631DD1
:1005D00013F007030CBF0EF8011B4B00C2F34011D0
:1005E0001943A31D13F007030CBF0EF8011B4B00AA
:1005F000C2F300111943E31D13F007030CBF0EF8FB
:10060000011B4B00C2F3C00114F0070043EA0103D1
:100610000CBF0EF8013B5800C2F3800104F109033E
:1006200013F0070341EA000118BF4B00C2F340007A
:1006300040EA030004F10A0308BF0EF8011B0B3463
:1006400013F0070118BF410002F0010308BF0EF8C4
:10065000010B14F0070243EA010358D0590063422A
:1006600003F0070358BF5A42C2F1070399400EF83E
:10067000011B5D44AE4551D1ABF10204002221467D
:100680003046FFF70FFE002C24DD00214FF495408B
:1006900001270BF10055023DED00CC1016F804C007
:1006A00001F0070E80EA50024CFA0EF302F001024C
:1006B00003F00103534007FA0EF803FA0EF32CEA95
:1006C000080C013143EA0C0392038D42335542EA90
:1006D0005000E2D1584603B0BDE8F08FABAAAA2A79
:1006E000ABAAAAAA4FF48003134208BF5B10FBD049
:1006F0001E46002BB8BF03F2FF76F61209FB06F682
:100700007240B2F5006FEFD202F00106A3E60EF8D8
:10071000013BAEE714F00702A1D1AAE740F20B11AA
:10072000024B034A034804F03BFE00BF886C0008FC
:10073000A86E0008B86C0008F0B520271F4E83B0E3
:10074000002205460C461E4840F22551C6F884702A
:1007500001F0DCFD40F22551194801F01FFE4FF475
:100760005871174801F01AFE0021154801F0C0FD2C
:1007700001214FF4804001F059FC00234FF4402246
:1007800010490F488B814B608A600D6001F054FD69
:100790000D4B01A8019300F0B7FF0121084801F0BB
:1007A000A7FD0CB903B0F0BD012240F22551044869
:1007B00001F0ACFD776003B0F0BD00BF00E100E0E8
:1007C0000038014054010020250F020100214FF0A4
:1007D000006000F0C7BF00BF10B501F039FB4FF457
:1007E000803001F059FB01F073FB012800D010BDEF
:1007F0000446102001F03AF9022001F02DF9902072
:1008000001F092FB4FF4A06001F0A2FB4FF4806076
:1008100001F094FB204601F075FB01F07DFB0428FC
:10082000FBD110BDF8B5114E114B3446114D44F8B3
:10083000103F28462146104F01F024F928460F2189
:1008400001F0CCFA0121384601F0CAFA0A20FFF77C
:10085000BDFC3846002101F0C3FA4823F374214659
:100860002846BDE8F84001F00DB900BF5401002052
:100870000080011000080140000430002DE9F84319
:100880008C4C0121042001F0D1FB21468A4B8B487E
:1008900041F8103F01F0F6F80121082001F0C6FBF5
:1008A0002146874B874841F8103F01F0EBF821467D
:1008B00004264FF48045844B824841F8103F01F0F4
:1008C000E1F8804804F110012582E67401F0DAF8BD
:1008D0000121102001F0AAFB21467C4B7C4841F805
:1008E000103F01F0CFF821467A4B764841F8103F8F
:1008F00001F0C8F82846012101F0A4FB4FF400677D
:100900004FF0827300251822C4E905370723724887
:1009100004F114012262A384A58301F0ABFB012141
:100920006D4801F0E5FB01216B4801F0CDFB4FF470
:100930008273694804F11401E38201F09BFB2146B4
:100940004FF48069654B5D4841F8103F01F09AF81B
:100950005A4804F11001E674A4F8109001F092F8DE
:1009600029464FF41650FFF7E7FE21464FF0800866
:100970005B4B544841F8103F01F084F8514804F1B2
:1009800010012782E67401F07DF8564B2946C3F822
:100990008480554801F0ACFC01214FF4802001F027
:1009A00051FB4FF440224FF4964321464E48A2603B
:1009B0002360A581656001F03FFC01214A4801F0F8
:1009C00097FC01210226084601F024FB474800F06D
:1009D00085FF474B01214748E362C4E90C56256572
:1009E00000F006FF4FF48073C4E91039424B202712
:1009F000A3624FF400533D4804F12801E364C4F8B6
:100A00003C80A764A56300F0FDFF0121374801F099
:100A100017F840232146294821F8103FE57401F0DA
:100A200031F82146254821F8107FE57401F02AF8B5
:100A3000284601F097FA01214FF4007001F0F6FA10
:100A400040F201124FF460232A4804F15401A4F843
:100A50005820E3656565256684F8646000F098FEBB
:100A6000032301220521234800F0EAFE0323324636
:100A70000621204800F0E4FE01211E4800F0B8FEE7
:100A80001C48012100F0AAFE1A4800F0BBFE1948DC
:100A900000F0BEFE0028FAD1164800F0BDFE154851
:100AA00000F0C0FE0028FAD1BDE8F843012111484A
:100AB00000F0BCBE540100200010011000080140ED
:100AC00080010110000C014000A00118002001105D
:100AD0000010014000800118003800400002011899
:100AE0000004011800E100E0004800400800024056
:100AF000E8010020002401404C24014070B5184C4E
:100B0000184B2146072541F8103F174800F0BAFF5F
:100B100001214FF4804001F095FA4FF082704FF4BC
:100B2000006118230022A584104D04F11406C4E9C5
:100B30000501314628462362A28301F09BFA28462C
:100B4000012101F0D5FA2846012101F0BDFA4FF448
:100B5000827331462846E382BDE8704001F08ABACC
:100B60005401002000800118000C014000380040B2
:100B7000012130B5044685B0084601F063FA002132
:100B8000012001F06BFA144B002293FBF4F30525CE
:100B9000013B01A94FF08040ADF80830ADF80A20C4
:100BA0008DF80C20019501F0B7FA01214FF080403B
:100BB00001F03EFB01224FF08040114601F01EFB88
:100BC000064B6846009300F09FFD01214FF08040E6
:100BD00001F006FB05B030BD40420F001C000101D2
:100BE00008B540F225510B4801F0B8FB38B109486F
:100BF00001F0AAFBBDE80840C0B202F009BB4FF407
:100C00005871044801F0AAFBBDE80840014801F012
:100C10009BBB00BF0038014010B52C4C204601F0B2
:100C2000E7FB637D012B05D040F214520023626282
:100C3000236210BD227C022AF6D9216A61B9627C46
:100C4000C2F1410202EB820202EB8202920092B2F6
:100C50006262A162236210BD4EF66020A36A1C4A44
:100C600003F53B532033A362A36A03F6B833A362B0
:100C7000A36AA2FB03C1890B00FB1133B3F5FA6F22
:100C800016D84FF47A700021637C124AC3F14103F5
:100C900000FB03F3A362A36AA162A2FB03239B09E7
:100CA00003EB830303EB83039B009BB2636210BDE2
:100CB0004EF28F21A36AA2FB03C2920B00FB1233F8
:100CC0008B42DED84FF49663F0E700BFBC010020F2
:100CD00073B2E745D34D621070B501214FF08040EB
:100CE00001F09AFA00B970BD01214FF0804001F087
:100CF0009FFA02F06DFC00286FD19F4C9F4DE38D51
:100D00002A689BB2934243DC94F83230002B7DD1A9
:100D100000232386238E9BB25BB9E08D80B202F064
:100D2000AFFD93A3D3E9002302F014FE03F024F8EF
:100D3000286094F83330002B3BD0666B012E6BD0CB
:100D4000636B022B00F08680636B032B00F09280B4
:100D5000636B94F833304BB9636A013B63622BB920
:100D6000012384F83D30636A013B6362AB68013B59
:100D7000AB60002BB7D194F84730002B31D06B68B3
:100D8000002B3ED1002384F847306423AB6070BD54
:100D9000238E01339BB22386238E9BB2212BB9D99C
:100DA00001234FF48071764884F8323001F016F850
:100DB000B0E794F84630002BCBD0236C732001337E
:100DC0005A4202F0030203F0030358BF5342D9B260
:100DD0000122236400F0FAFABBE7BDE8704002F09C
:100DE000F1BB94F848301B0603D4012384F8473044
:100DF000CBE76B68002BF8D08021614800F0EEFF54
:100E0000F3E780215E4800F0E7FFBBE74FF4805135
:100E10005C4800F0E1FF7BE7A06BFFF713FA94F862
:100E2000323084F83C00002B93D1022855D00128A1
:100E300000F0888000288CD101463246732000F0F3
:100E4000C5FA6B68002B84D04FF480714C4800F0D9
:100E5000C3FF7EE7E38FA26B9BB2D05C00F088FA01
:100E6000461C0146206425D00122C9B2732000F03F
:100E7000ADFA6EE7E38FA26B9BB2D05C00F08EFA06
:100E800001462064481CEFD1E38F9BB25A1C92B2FA
:100E9000E287B4F8442092B2934244D0E38FA26B2D
:100EA0009BB2D05C00F07AFA014620644A1C3FF401
:100EB00050AFD9E7E38F9BB25A1C92B2E287B4F8E5
:100EC000442092B293421DD0E38FA26B9BB2D05CC0
:100ED00000F04EFA01462064E8E76B68002B40D131
:100EE000A36B5A1CA2635B7803F0FF06002B7FF410
:100EF00030AF84F83360FFF78FFE84F83D6000F078
:100F000049FB26E7002603210122732000F05EFA48
:100F1000E68784F83360FFF77FFE84F83D6000F0D9
:100F200039FB216CC2E7002600210122732000F06A
:100F30004DFAE68784F83360FFF76EFE216C84F883
:100F40003D60B3E702460321732000F03FFA6B686F
:100F5000002B3FF4FEAE4FF48071094800F03EFFD5
:100F6000F7E64FF48071064800F038FFB8E700BF9D
:100F70009A9999999999F13FBC0100209C00002011
:100F8000000C01400008014038B52A4CE36C0133E5
:100F9000E36400F071FB4FF416710246A38D204606
:100FA0009BB201FB03F31B1384F85020636501F02F
:100FB0001FFA657D012D15D094F858300133DBB24E
:100FC000072B84F8583029D80023012094F84820B2
:100FD000194902F07F0284F84820C4E901332360F4
:100FE000486038BD0022237C84F85820052B06D9A0
:100FF00094F859301BB901F017FA84F859500F4A88
:10100000A16894F848309142CCBF0022012243F0FD
:10101000800384F84830084B5A6038BDBFF34F8FC7
:101020000749084BCA6802F4E0621343CB60BFF380
:101030004F8FFEE7BC0100209C00002027460F00D8
:1010400000ED00E00400FA05F0B54B4C89B0A36850
:10105000002BC0F28380494ADF1782FB0323C7EBD2
:10106000A317BFB2206802F089FF454903F08EF84C
:101070000646606802F082FF414903F087F80546A2
:10108000606D02F07BFF3F4902F0CCFF02F00AFCEA
:1010900000223D4B02F088FD02F096FE03464FF41D
:1010A0008072ADF80F70DFB2638AE16C5BBAADF8A5
:1010B0000430637CE0688DF80630ADF80020ADF8B0
:1010C0000210CDF80760CDF80B5002F057FF02F088
:1010D000E9FB27A3D3E9002302F03CFC02F074FEF5
:1010E000002294F85830217C03EB83035B00ADF8B9
:1010F0001A3094F850308DF811008DF81330A37D1C
:101100008DF81470012B8DF81210CDF815208DF884
:101110001920ADF81C2025D0022B04BF38398DF8DA
:1011200012101A4D1E21684602F0B8F82B46184AD4
:10113000ADF81E0007CA03C369461A70184620227C
:10114000FFF72AF9083080B2A563A4F8440000F044
:101150006DFA012384F8333009B0F0BD00231F4637
:10116000A3607FE764318DF81210DAE7AFF30080F7
:101170003BDF4F8D976EA23FBC010020D34D621024
:101180008096184B00007F4300407F4044030020BE
:10119000446D00082DE9F0410026012488B0FFF7D6
:1011A0001BFBFFF713FBFFF769FB6420FFF7E0FC75
:1011B000FEF7DEFF01F09AFE4FF48071684800F000
:1011C0000DFE8021664800F007FE00F009FA654830
:1011D00000F02AF9012205216D2000F0F7F8012224
:1011E0000021712000F0F2F801220021132000F00C
:1011F000EDF85D4D01222021122000F0E7F80122D8
:1012000080210F2000F0E2F805F15C03AB6385F864
:10121000336085F83D40FFF771FC524800F004F957
:1012200022463146712000F0D1F8504C64204C4FDA
:10123000FFF79EFC02F092F900F0F8F92E620DF132
:10124000130695F8333003F0FF029BB995F83D3053
:1012500083B16B6BA3B9FFF797FE4FF480713846EB
:1012600000F0BAFD01236B6395F8333003F0FF0201
:10127000002BEBD00021102000F07EFA30BFE0E719
:101280006B6B012B0FD06B6B022B09D06B6B042B9C
:1012900010D06B6B6A63052BD3D100F07BF9D0E7DC
:1012A00004236B63CDE702236B6300F0BFF9FFF704
:1012B000CBFEC6E705222B68697D01936B686A63E4
:1012C0000293AB680393B5F85430ADF8103095F93C
:1012D00050308DF812302B7C03F07F0343EAC113AA
:1012E000E96C8DF81330009172B68021204601F030
:1012F0002FF80028F9D0AA21204601F021F80DF19D
:10130000FF388021204601F023F80028F9D018F892
:10131000011F204601F014F8B045F2D1029ADDE930
:1013200000134B405340DDE903124B405340C3F3DD
:10133000072883EA0808C3F3074288EA020888EA14
:1013400013685FFA88F88021204601F001F8002830
:10135000F9D04146204600F0F3FF62B671E700BFC6
:10136000000C0140645BD943BC01002000480040F0
:1013700009494A78042A0BD02AB10023013380009E
:101380009342C0B2FAD10132D2B280094A7070479A
:1013900000224FF0FF30F9E7D60500200A498A788D
:1013A000082A0CD02AB10023013340009342C0B276
:1013B000FAD10132C009D2B240008A7070470022CF
:1013C0004FF0FF30F9E700BFD605002010B522B37B
:1013D00040F08000040224B20C4311484FF4005145
:1013E000A4B200F0FBFC02210E4800F08FFE0028A2
:1013F000F9D021460B4800F075FE0121094800F0A4
:1014000085FE0028F9D04FF40051054800F0E4FCB7
:10141000044800F069FEC0B210BD000204B2DBE770
:101420000010014000380040F8B55249074602F06C
:10143000F9FD5149044602F0A7FF0546003D18BFDB
:1014400001252E464D49204602F0A0FE02F0B0FFD5
:1014500073B2002B14BF6FF0170300230135C4B221
:10146000183C28461C4402F089FD454902F0DAFD8B
:101470000146384602F08AFE94FBF5F40546E0B2D8
:1014800002F07CFD0146284602F0C2FC3D4902F014
:10149000BFFC3D4902F0C6FD02F08AFF054604F09C
:1014A0001F0343EA46135BB243F4754343F0400322
:1014B0004FF400513548ADB29CB200F08FFC0221D0
:1014C000334800F023FE0028F9D02146304800F0D0
:1014D00009FE01212E4800F019FE0028F9D04FF432
:1014E00000512A4800F078FC294800F0FDFD2C0A44
:1014F0004FF40051254844F4764400F06FFC02217B
:10150000234800F003FE0028F9D02146204800F0CF
:10151000E9FD01211E4800F0F9FD0028F9D04FF443
:1015200000511A4800F058FC194800F0DDFDEDB2FA
:101530004FF40051154845F4774500F04FFC022167
:10154000134800F0E3FD0028F9D02946104800F0C8
:10155000C9FD01210E4800F0D9FD0028F9D00B4843
:101560004FF4005100F038FCBDE8F840084800F0A6
:10157000BBBD00BF3BB1933F0000F04300002041E2
:10158000ABAA0A410000C04100007A4700100140A8
:10159000003800404FF4005108B50F4800F01EFC21
:1015A00002210E4800F0B2FD0028F9D048F2407147
:1015B0000A4800F097FD0121084800F0A7FD002827
:1015C000F9D005484FF4005100F006FCBDE8084092
:1015D000024800F089BD00BF001001400038004003
:1015E0004FF4005108B50F4800F0F8FB02210E48F7
:1015F00000F08CFD0028F9D048F280710A4800F014
:1016000071FD0121084800F081FD0028F9D005484E
:101610004FF4005100F0E0FBBDE80840024800F044
:1016200063BD00BF00100140003800404FF400517E
:1016300008B50F4800F0D2FB02210E4800F066FD0D
:101640000028F9D048F24B710A4800F04BFD012107
:10165000084800F05BFD0028F9D005484FF4005120
:1016600000F0BAFBBDE80840024800F03DBD00BFF5
:1016700000100140003800404FF4005110B52048E0
:1016800000F0ACFB02211F4800F040FD0028F9D01B
:1016900041F2FF111B4800F025FD0121194800F01F
:1016A00035FD0028F9D04FF40051154800F094FBA7
:1016B000144800F019FD0446C4F34604403C4FF4BE
:1016C00000510F48A4B200F089FB02210D4800F040
:1016D0001DFD0028F9D048F680710A4800F002FD8F
:1016E0000121084800F012FD0028F9D04FF4005104
:1016F000034800F071FB034800F0F6FC60B210BD37
:10170000001001400038004030B501240178C37852
:1017100001F01F024FEA511C9440C3B10F4B0F253B
:10172000DA6890F801E0D2438378C2F30222D54010
:10173000C2F104022B400EFA02F2094813431B01C6
:101740000144DBB281F8003340F82C4030BD044B3B
:101750000CF1200C43F82C4030BD00BF00ED00E040
:1017600000E100E021F06041024B21F07F010143E4
:101770009960704700ED00E0044A136911B103431A
:101780001361704723EA00031361704700ED00E026
:10179000436891F804C023F4702310B423F48073D9
:1017A0000C6843EA0C232343436083680A4A91F898
:1017B00005C01A40D1E902432343134343EA4C03D3
:1017C00083600A7CC36A013A23F47003D2B243EA0D
:1017D000025310BCC3627047FDF7F1FF836819B173
:1017E00043F001038360704723F001038360704777
:1017F000836819B143F480738360704723F4807366
:1018000083607047836843F008038360704700BFBC
:101810008068C0F3C0007047836843F004038360AE
:10182000704700BF8068C0F380007047836819B1BB
:1018300043F4A0038360704723F4A00383607047E0
:10184000092910B52ED94FF0070EA1F10A0CC46872
:101850000CEB4C0C03FA0CF30EFA0CFC24EA0C040F
:101860002343C360062A0DD84FF01F0C013A436B87
:1018700002EB820291400CFA02F223EA02031943BE
:10188000416310BD0C2A4FF01F041AD8073A036BAE
:1018900002EB8202914004FA02F223EA02031943A6
:1018A000016310BD4FF0070C046901EB410E0CFA07
:1018B0000EFC03FA0EF324EA0C0C43EA0C0303615A
:1018C000D0E70D3AC36A02EB8202914004FA02F2B9
:1018D00023EA02031943C16210BD00BF4FF6FE7C2C
:1018E00000230268394902EA0C0288420260036060
:1018F00043608360C36027D0354B98421ED0354B80
:1019000098422DD0344B984230D0344B984221D05D
:10191000334B984230D0334B984239D0324B9842B7
:101920003CD0324B98422DD0314B98423CD0314B79
:1019300098423FD0304B984242D070472F4A53686C
:1019400043F0F003536070472C4A536843F00F0391
:1019500053607047294A536843F4702353607047BB
:10196000264A536843F4706353607047234A5368B0
:1019700043F4704353607047204A536843F4700344
:10198000536070471E4A536843F0F003536070473A
:101990001A4A536843F0706353607047184A53689B
:1019A00043F00F0353607047154A536843F4706364
:1019B00053607047124A536843F470435360704752
:1019C0000F4A536843F470235360B6E7080002409F
:1019D0001C00024030000240440002405800024017
:1019E0006C00024080000240080402401C040240D7
:1019F0003004024044040240580402400000024007
:101A0000000402408B6830B40C6A0A692343134314
:101A1000CD69D1E90542234313434C6A2B43026845
:101A200023438C6A6FF30E122343CC681343036085
:101A3000D1E900234460826030BCC360704700BFBE
:101A400021B1036843F00103036070474FF6FE7253
:101A50000368134003607047034A136803F03803B8
:101A600003431360704700BF00200240044B1A6814
:101A700022F010021A601A6802431A60704700BF11
:101A80000020024000B591F803C01CF0100F18BFF1
:101A90008B780CF00F0E18BF4EEA030E0B88DAB2EB
:101AA000002A6AD0BCF1280F026800F08C80BCF1DB
:101AB000480F00F04A81D90744BF22F00F024EEAD6
:101AC0000202990744BF22F0F00242EA0E125907BF
:101AD00044BF22F4706242EA0E22190744BF22F486
:101AE000704242EA0E32D90644BF22F4702242EA22
:101AF0000E42990644BF22F4700242EA0E52590681
:101B000044BF22F0706242EA0E62190648BF6EF3CB
:101B10001F72FF2B02602ED94268D90544BF22F004
:101B20000F024EEA0202990544BF22F0F00242EA97
:101B30000E12590544BF22F4706242EA0E221905C2
:101B400044BF22F4704242EA0E32D90444BF22F468
:101B5000702242EA0E42990444BF22F4700242EA23
:101B60000E52590444BF22F0706242EA0E621B0416
:101B700000F12F8142605DF804FBFF2BFBD9BCF123
:101B8000280F426861D0BCF1480FC6D1D90500F1D9
:101B9000D480990500F1C980590500F1BE8019056E
:101BA00000F1B380D90400F1A880990400F19D8070
:101BB000590400F192801B04DCD54FF400436EF30E
:101BC0001F720361D6E7D90705D5012122F00F0264
:101BD0004EEA02024161990705D5022122F0F00286
:101BE00042EA0E124161590705D5042122F47062C0
:101BF00042EA0E224161190705D5082122F47042FC
:101C000042EA0E324161D90605D5102122F4702234
:101C100042EA0E424161990605D5202122F4700264
:101C200042EA0E524161590605D5402122F0706208
:101C300042EA0E624161190603D580216EF31F72DC
:101C40004161FF2B026096D94268D90506D54FF451
:101C5000807122F00F024EEA02024161990506D519
:101C60004FF4007122F0F00242EA0E124161590570
:101C700006D54FF4806122F4706242EA0E2241617F
:101C8000190506D54FF4006122F4704242EA0E3283
:101C90004161D90406D54FF4805122F4702242EA02
:101CA0000E424161990406D54FF4005122F47002AE
:101CB00042EA0E524161590406D54FF4804122F0A8
:101CC000706242EA0E6241611B047FF553AF4FF42C
:101CD00000436EF31F7243614CE74FF4804122F0E2
:101CE000706242EA0E62016165E74FF4005122F42E
:101CF000700242EA0E5201615AE74FF4805122F419
:101D0000702242EA0E4201614FE74FF4006122F473
:101D1000704242EA0E32016144E74FF4806122F4DE
:101D2000706242EA0E22016139E74FF4007122F03D
:101D3000F00242EA0E1201612EE74FF4807122F0A8
:101D40000F024EEA0202016123E7D90705D50121FE
:101D500022F00F024EEA02020161990705D5022125
:101D600022F0F00242EA0E120161590705D5042162
:101D700022F4706242EA0E220161190705D508219A
:101D800022F4704242EA0E320161D90605D51021D3
:101D900022F4702242EA0E420161990605D5202103
:101DA00022F4700242EA0E520161590605D5402123
:101DB00022F0706242EA0E620161190603D58021A9
:101DC0006EF31F720161FF2B02607FF6D4AE426892
:101DD000DCE66EF31F72CDE601617047416170472A
:101DE00000281A4B00F44012B4BFDB695B68B2F5FF
:101DF000401F10B41FFA80FC1FD0C20214D503226A
:101E0000C0F30344A24023EA020343F0706321B10C
:101E1000410D09010CFA01F213430C4A002810BCD1
:101E2000B4BFD36153607047420D12010CFA02F245
:101E300023EA020343F07063E9E7044C23F0706384
:101E4000626822F070626260E1E700BF000001405A
:101E500010B400204FF41F040D4B0E4A196841F0D6
:101E60000101196059680A405A601A6822F08472A8
:101E700022F480321A601A6822F480221A605A68AA
:101E800022F4FE025A609C6010BCD862704700BF0A
:101E9000001002400000FFF80C4BB0F5803F1A68BC
:101EA00022F480321A601A6822F480221A6008D064
:101EB000B0F5802F00D070471A6842F4A0221A6053
:101EC00070471A6842F480321A607047001002406E
:101ED000002382B00A4A0193136813F4003F019B68
:101EE00003F101030193019B05D0054B1868C0F372
:101EF000404002B07047B3F5A06FEDD1F5E700BFE9
:101F000000100240034A536823F003030343536065
:101F1000704700BF00100240024B586800F00C00F0
:101F2000704700BF00100240034A536823F0F003DB
:101F300003435360704700BF00100240034A5368D8
:101F400023F4E06303435360704700BF0010024076
:101F5000034A536823F4605343EAC0035360704755
:101F600000100240034A536823F440430343536084
:101F7000704700BF00100240214A10B4536803F0BC
:101F80000C03042B2FD0082B21D01E4B1C490360BF
:101F90004C681D4AC4F30314145DE34043604C686D
:101FA000C4F30224145D23FA04F484604C68C4F37F
:101FB000C22C12F80C40E340C360496810BCC1F366
:101FC00081310A44127CB3FBF2F30361704753681A
:101FD0005168C3F38343C90303F1020305D40B4AD9
:101FE00002FB03F3D2E70A4BD0E7D26A084902F0BA
:101FF0000F020132B1FBF2F202FB03F3C6E700BFAE
:102000000010024000127A00C46E000800093D0072
:1020100000366E01044A536911B10343536170479E
:1020200023EA00035361704700100240044A936999
:1020300011B103439361704723EA00039361704732
:1020400000100240044AD36911B10343D3617047C1
:1020500023EA0003D361704700100240044A136969
:1020600011B103431361704723EA00031361704702
:1020700000100240B1F802C00B888A8843EA0C03C2
:10208000B1F806C013430A8943EA0C0300B5B1F85E
:102090000AE0B1F80CC0134343EA0E03028843EA96
:1020A0000C03B1F80EC002F4415243EA0C0313438F
:1020B0009BB20380838B0A8A23F400631B041B0CEE
:1020C000838302825DF804FB038821B19BB243F055
:1020D00040030380704723F040031B041B0C038064
:1020E000704700BF81817047808980B2704700BF10
:1020F000838821B19BB243F004038380704723F0AF
:1021000004031B041B0C8380704700BF0389194222
:1021100014BF01200020704710B42B4C0388A0424C
:102120008A88B1F800C09BB219D0284CA04216D0C2
:10213000B0F1804F25D0A4F59834A04221D004F509
:102140008064A0421DD004F58064A04219D0204CC8
:10215000A0422AD103808285A0F828C00DE04C88D7
:1021600023F070032343CC8823F44073234303807C
:102170008285A0F828C00B7A0386012310BC8382D5
:1021800070474C8823F070032343CC8823F44073BA
:10219000234303808285A0F828C00E4B9842EAD0E2
:1021A00003F580639842E8D1E5E70B4CA042D1D01B
:1021B000CC8823F4407323430380084B82859842E4
:1021C000A0F828C0D7D0E8E7002C01400034014037
:1021D0000010004000440140001400400040014055
:1021E000038821B19BB243F001030380704723F0C1
:1021F00001031B041B0C0380704700BF83899BB243
:1022000012B10B438381704723EA01038381704736
:102210008184704781857047038A828911EA0300AF
:1022200092B203D00A4214BF01200020704700BFC1
:10223000C94389B20182704730B50446238ACA88EF
:102240009BB223F4405313432382A3898A8823F447
:10225000B05323F00C031B041B0C13430A8987B0F3
:1022600013434A8901A813439BB2A381A38A8A8995
:102270009BB223F440731343A3820D46FFF77CFE09
:10228000DDE9033118482A68844208BF0B46A1895A
:1022900003EB830308044CBF5200920003EB83035B
:1022A000B3FBF2F364251148A0FB0321490905FBA8
:1022B00011330A01A18909040AD41B013233A0FB9E
:1022C0000303C3F3431313439BB2238107B030BD11
:1022D000DB003233A0FB0303C3F3421313439BB26F
:1022E000238107B030BD00BF003801401F85EB518E
:1022F000838921B19BB243F400538381704723F457
:1023000000531B041B0C8381704700BF012301F0A5
:102310001F0CC1F34211012903FA0CF30DD002295D
:102320000CBF103014301AB10268134303607047B9
:10233000026822EA0303036070470C30F3E700BF32
:10234000C1F30801818070478088C0F3080070479E
:102350000388194214BF0120002070470123C1F3F4
:10236000421201F01F0C012A03FA0CF312D0022AC8
:102370000CBF028A828A92B21340028892B23BB1A9
:102380000123090A8B401A4214BF01200020704724
:1023900018467047828992B21340EEE70123090A7A
:1023A0008B40DB439BB20380704700BF044A054962
:1023B0001368002B08BF0B4618441060184670477E
:1023C000DC050020340900204FF0FF30704700BFCB
:1023D0004FF4005300204B60704700BF012070474E
:1023E000002070471046704710467047FEE7000017
:1023F00010B4844672B60B4C0FCCCCF80000CCF86D
:102400000410CCF80820CCF80C300FCCCCF810001D
:10241000CCF81410CCF81820CCF81C3062B610BCE4
:10242000704700BFE0050020F0B5664B9BB0664CDE
:102430005A22002103A8CDE9014303F063F8634C5D
:1024400040212046FFF784FF0028F9D0B5215F48DE
:10245000FFF776FF5D4C40212046FFF779FF00280B
:10246000F9D05A4C40212046FFF772FF0028F9D0DE
:1024700062215648FFF764FF544C40212046FFF785
:1024800067FF0028F9D0514C40212046FFF760FF3C
:102490000028F9D006214D48FFF752FF4B4C402150
:1024A0002046FFF755FF0028F9D0484C4021204630
:1024B000FFF74EFF0028F9D011214448FFF740FFF5
:1024C000424C40212046FFF743FF0028F9D03F4C03
:1024D00040212046FFF73CFF0028F9D002213B486D
:1024E000FFF72EFF394C40212046FFF731FF00282F
:1024F000F9D0364C40212046FFF72AFF0028F9D0BA
:1025000000213248FFF71CFF304C40212046FFF7E6
:102510001FFF0028F9D02D4C0DF109050DF10B0717
:1025200015F8016F40212046FFF712FF0028F9D06F
:1025300031462046FFF704FF40212046FFF708FF01
:102540000028F9D0BD42EBD1204C40212046FFF7B6
:10255000FFFE0028F9D022211C48FFF7F1FE1B4C9A
:1025600040212046FFF7F4FE0028F9D0174C402107
:102570002046FFF7EDFE0028F9D092211348FFF71F
:10258000DFFE124C40212046FFF7E2FE0028F9D082
:1025900000230F4DC92485F8203085F8213009E04B
:1025A00095F8213053B90120FDF710FE631E13F09A
:1025B000FF0403D095F82030002BF1D095F820309F
:1025C0001BB0F0BD02000801B562061100380140E1
:1025D000E00500202DE9F047B2B0592200210DF1AD
:1025E000090002F08FFF032140F201220123AE48CF
:1025F000AE4DAF4C0090ADF80410ADF806208DF84C
:10260000083002AE40212046FFF7A2FE0028F9D094
:10261000B5212046FFF794FE40212046FFF798FEA3
:102620000028F9D040212046FFF792FE0028F9D07B
:1026300062212046FFF784FE40212046FFF788FEF6
:102640000028F9D040212046FFF782FE0028F9D06B
:1026500006212046FFF774FE40212046FFF778FE52
:102660000028F9D040212046FFF772FE0028F9D05B
:1026700001212046FFF764FE40212046FFF768FE57
:102680000028F9D040212046FFF762FE0028F9D04B
:1026900003212046FFF754FE40212046FFF758FE55
:1026A0000028F9D040212046FFF752FE0028F9D03B
:1026B00000212046FFF744FE40212046FFF748FE58
:1026C0000028F9D00DF1050717F8018F40212046A9
:1026D000FFF73EFE0028F9D041462046FFF730FEC6
:1026E00040212046FFF734FE0028F9D0B742EBD155
:1026F00040212046FFF72CFE0028F9D00E2120466D
:10270000FFF71EFE40212046FFF722FE0028F9D0E9
:1027100040212046FFF71CFE0028F9D04721204623
:10272000FFF70EFE40212046FFF712FE0028F9D0E9
:102730000023C92785F8203085F8213009E095F875
:10274000213053B90120FDF741FD7B1E13F0FF0737
:1027500003D095F82030002BF1D095F82030002BD5
:102760003FF450AF0623524C8DF8073040212046ED
:10277000FFF7EEFD0028F9D0B5212046FFF7E0FD78
:1027800040212046FFF7E4FD0028F9D040212046F3
:10279000FFF7DEFD0028F9D062212046FFF7D0FDCB
:1027A00040212046FFF7D4FD0028F9D040212046E3
:1027B000FFF7CEFD0028F9D006212046FFF7C0FD27
:1027C00040212046FFF7C4FD0028F9D040212046D3
:1027D000FFF7BEFD0028F9D001212046FFF7B0FD2C
:1027E00040212046FFF7B4FD0028F9D040212046C3
:1027F000FFF7AEFD0028F9D003212046FFF7A0FD2A
:1028000040212046FFF7A4FD0028F9D040212046B2
:10281000FFF79EFD0028F9D000212046FFF790FD2C
:1028200040212046FFF794FD0028F9D00DF105075F
:1028300017F8018F40212046FFF78AFD0028F9D0C4
:1028400041462046FFF77CFD40212046FFF780FDF2
:102850000028F9D0B742EBD140212046FFF778FDA0
:102860000028F9D012212046FFF76AFD40212046BA
:10287000FFF76EFD0028F9D040212046FFF768FDE4
:102880000028F9D04F212046FFF75AFD402120466D
:10289000FFF75EFD0028F9D00023C92785F8203016
:1028A00085F8213010E000BFB5620601E005002088
:1028B0000038014095F8213053B90120FDF786FC1E
:1028C0007B1E13F0FF0703D095F82030002BF1D0CA
:1028D00095F82030002B3FF449AF2123A94C8DF807
:1028E000073040212046FFF733FD0028F9D0B521FD
:1028F0002046FFF725FD40212046FFF729FD00284F
:10290000F9D040212046FFF723FD0028F9D06221AD
:102910002046FFF715FD40212046FFF719FD00284E
:10292000F9D040212046FFF713FD0028F9D00621F9
:102930002046FFF705FD40212046FFF709FD00284E
:10294000F9D040212046FFF703FD0028F9D00121EE
:102950002046FFF7F5FC40212046FFF7F9FC002850
:10296000F9D040212046FFF7F3FC0028F9D00321DD
:102970002046FFF7E5FC40212046FFF7E9FC002850
:10298000F9D040212046FFF7E3FC0028F9D00021D0
:102990002046FFF7D5FC40212046FFF7D9FC002850
:1029A000F9D00DF1050717F8018F40212046FFF7F8
:1029B000CFFC0028F9D041462046FFF7C1FC40215A
:1029C0002046FFF7C5FC0028F9D0B742EBD14021E3
:1029D0002046FFF7BDFC0028F9D02D212046FFF747
:1029E000AFFC40212046FFF7B3FC0028F9D040217E
:1029F0002046FFF7ADFC0028F9D085212046FFF7DF
:102A00009FFC40212046FFF7A3FC0028F9D00023BB
:102A1000C92785F8203085F8213009E095F8213064
:102A200053B90120FDF7D2FB7B1E13F0FF0703D043
:102A300095F82030002BF1D095F82030002B3FF492
:102A400050AF12234F4C8DF8073040212046FFF73E
:102A50007FFC0028F9D0B5212046FFF771FC40210A
:102A60002046FFF775FC0028F9D040212046FFF7EB
:102A70006FFC0028F9D062212046FFF761FC40215D
:102A80002046FFF765FC0028F9D040212046FFF7DB
:102A90005FFC0028F9D006212046FFF751FC4021B9
:102AA0002046FFF755FC0028F9D040212046FFF7CB
:102AB0004FFC0028F9D001212046FFF741FC4021BE
:102AC0002046FFF745FC0028F9D040212046FFF7BB
:102AD0003FFC0028F9D003212046FFF731FC4021BC
:102AE0002046FFF735FC0028F9D040212046FFF7AB
:102AF0002FFC0028F9D000212046FFF721FC4021BF
:102B00002046FFF725FC0028F9D00DF1050717F83E
:102B1000018F40212046FFF71BFC0028F9D04146D9
:102B20002046FFF70DFC40212046FFF711FC00284E
:102B3000F9D0B742EBD140212046FFF709FC00282D
:102B4000F9D01E212046FFF7FBFB40212046FFF76E
:102B5000FFFB0028F9D040212046FFF7F9FB0028B1
:102B6000F9D067212046FFF7EBFB40212046FFF715
:102B7000EFFB0028F9D00023C92785F8203085F81D
:102B800021300BE00038014095F8213053B9012085
:102B9000FDF71CFB7B1E13F0FF0703D095F82030D8
:102BA000002BF1D095F82030002B3FF44EAF0323DB
:102BB000BF4C8DF8073040212046FFF7C9FB0028A5
:102BC000F9D0B5212046FFF7BBFB40212046FFF797
:102BD000BFFB0028F9D040212046FFF7B9FB0028B1
:102BE000F9D062212046FFF7ABFB40212046FFF7DA
:102BF000AFFB0028F9D040212046FFF7A9FB0028B1
:102C0000F9D006212046FFF79BFB40212046FFF725
:102C10009FFB0028F9D040212046FFF799FB0028B0
:102C2000F9D001212046FFF78BFB40212046FFF71A
:102C30008FFB0028F9D040212046FFF789FB0028B0
:102C4000F9D003212046FFF77BFB40212046FFF708
:102C50007FFB0028F9D040212046FFF779FB0028B0
:102C6000F9D000212046FFF76BFB40212046FFF7FB
:102C70006FFB0028F9D00DF1050717F8018F4021EF
:102C80002046FFF765FB0028F9D041462046FFF7B4
:102C900057FB40212046FFF75BFB0028F9D0B742E5
:102CA000EBD140212046FFF753FB0028F9D00F213C
:102CB0002046FFF745FB40212046FFF749FB00284F
:102CC000F9D040212046FFF743FB0028F9D04921E5
:102CD0002046FFF735FB40212046FFF739FB00284F
:102CE000F9D00023C92785F8203085F8213009E084
:102CF00095F8213053B90120FDF768FA7B1E13F0D7
:102D0000FF0703D095F82030002BF1D095F8203044
:102D1000002B3FF450AF582200210DF16E0002F05D
:102D2000F1FB40F20622002342F210710520ADF8BB
:102D30006C20ADF874304FF064120223ADF87210BD
:102D40005C495D4C1F915D491994594C8DF8760092
:102D50001A910DF18D071E928DF881300DF16908E1
:102D60004246CC264FF04E0912F8013F4B445FFA21
:102D700083F94E449742F6B2F6D140212046FFF740
:102D8000E7FA0028F9D0B5212046FFF7D9FA40210B
:102D90002046FFF7DDFA0028F9D040212046FFF752
:102DA000D7FA0028F9D062212046FFF7C9FA40215E
:102DB0002046FFF7CDFA0028F9D040212046FFF742
:102DC000C7FA0028F9D006212046FFF7B9FA4021BA
:102DD0002046FFF7BDFA0028F9D040212046FFF732
:102DE000B7FA0028F9D024212046FFF7A9FA40219C
:102DF0002046FFF7ADFA0028F9D040212046FFF722
:102E0000A7FA0028F9D024212046FFF799FA40219B
:102E10002046FFF79DFA0028F9D040212046FFF711
:102E200097FA0028F9D000212046FFF789FA4021BF
:102E30002046FFF78DFA0028F9D018F801AF40219D
:102E40002046FFF785FA0028F9D051462046FFF7C3
:102E500077FA40212046FFF77BFA0028F9D0474552
:102E6000EBD140212046FFF773FA0028F9D04946FC
:102E70002046FFF765FA40212046FFF769FA00284F
:102E8000F9D040212046FFF763FA0028F9D03146F7
:102E90002046FFF755FA40212046FFF759FA00284F
:102EA000F9D00023C92685F8203085F8213011E0BB
:102EB000003801406400C800B56206242400FF0306
:102EC00095F8213053B90120FDF780F9731E13F0F6
:102ED000FF0603D095F82030002BF1D095F8203074
:102EE000002B3FF43BAF32B0BDE8F0872DE9F04353
:102EF00001219BB04FF41650FDF71EFCFDF792FC2C
:102F00004FF44870FDF762F95F2200210DF10700D0
:102F100002F0F8FA46F2B520062101224FF40C65C2
:102F200000231424ADF804008DF806104FF4164069
:102F30004FF001110DF10906ADF80E508DF80A2081
:102F4000402532464FF01A08ADF80840ADF8103071
:102F5000ADF814300DF11D07ADF81200CDF81610C4
:102F600012F8013F43445FFA83F84544BA42EDB298
:102F7000F6D140215548FFF7EBF90028F9D0B521EB
:102F80005248FFF7DDF9514C40212046FFF7E0F9A8
:102F90000028F9D040214D48FFF7DAF90028F9D090
:102FA00062214A48FFF7CCF9484C40212046FFF700
:102FB000CFF90028F9D040214448FFF7C9F900288B
:102FC000F9D006214148FFF7BBF9404C402120468B
:102FD000FFF7BEF90028F9D040213C48FFF7B8F9C7
:102FE0000028F9D000213948FFF7AAF9374C4021D1
:102FF0002046FFF7ADF90028F9D040213348FFF70C
:10300000A7F90028F9D014213048FFF799F92F4C7F
:1030100040212046FFF79CF90028F9D040212B4899
:10302000FFF796F90028F9D000212848FFF788F922
:10303000264C40212046FFF78BF90028F9D0234C7D
:1030400016F8019F40212148FFF782F90028F9D0A6
:1030500049462046FFF774F940212046FFF778F9EA
:103060000028F9D0BE42EBD140211848FFF770F993
:103070000028F9D041461548FFF762F9134C40216A
:103080002046FFF765F90028F9D040210F48FFF7E7
:103090005FF90028F9D029460C48FFF751F90B4C8D
:1030A00040212046FFF754F90028F9D00A20FDF707
:1030B0008DF801214FF41640FDF73EFB0A20FDF785
:1030C00085F81BB0BDE8F043FFF784BA0038014033
:1030D000F0B490F802C0C77884880CEB0703DBB229
:1030E0001919C9B20CEB03020A4401EB1421C9B24D
:1030F0000A44851DD2B24CB10023EE5C0133314449
:10310000C9B2DBB20A449C42D2B2F6D82B5D254448
:103110008B4205D03D4A938B01339383F0BC7047BB
:103120006B789342F6D1BCF1010F0BD0BCF1050FC7
:10313000F4D1012F66D0002FF0D10122334B83F858
:103140002120EBE7072F0ED0022F2AD0032F36D0F5
:10315000062F41D0212F4DD0122FDFD12B4BD0F88D
:103160001A20DA60DAE7294B827ED0F82A401A75F5
:10317000D0F81E20598B5A600022467F057C013111
:103180009C6066F30702C47B598365F30F22817B41
:1031900064F31742D0F8220061F31F6218601A61CD
:1031A000BCE71A4BD0F80A405A8BD0F81610D0F86A
:1031B0000E0001325C6018605A839960AEE7C27AF3
:1031C000124B02F001025A75427B598B02F0030246
:1031D000013159839A75A1E7017C0C4B90F8352099
:1031E00019751A7490F8322090F8331042EA0122CF
:1031F0001A8393E7054B847DC17D027EDC7499744C
:103200005A748BE7014B83F8207087E7E0050020B4
:1032100010B5214C94F8232094F8223082B93BB1A8
:10322000012B01D162282FD0002384F8223010BD59
:10323000B528F9D1012384F8240084F8223010BD88
:10324000E218042B82F8240010D9228D591E08326E
:1032500091420FD00133DBB2632B89BF002384F886
:10326000223084F8223084F8233010BD013384F8F2
:10327000223010BD04F12400FFF72AFF002384F858
:10328000223084F8233010BD022284F8233084F8E1
:10329000250084F8222010BDE0050020B1F1000CCB
:1032A0006EDD024641F221014FF6FF7000B59444F5
:1032B0002EE05B001FFA83FE1BB2002B37DB4FEAC8
:1032C0004E0E1FFA8EF00FFA8EFEBEF1000F36DBA7
:1032D000400083B200B2002839DB5B0098B21BB219
:1032E000002B3ADB400083B200B200283BDB5B00DE
:1032F00098B21BB2002B3CDB400083B200B2002826
:10330000ABBF5B0081EA400098B280B2944535D0F3
:1033100012F8013B80EA032318B20028C9DA81EAD7
:10332000400E0FFA8EF3002B1FFA8EFEC7DA81EAE9
:1033300043030FFA83FEBEF1000F98B2C8DA81EAA8
:103340004E0E0FFA8EF000281FFA8EF3C5DA81EACE
:10335000400003B2002B80B2C4DA81EA430318B202
:1033600000289BB2C3DA81EA400003B2002B80B28E
:10337000C2DA81EA430318B29BB2C0E75DF804FBEE
:103380004FF6FF70704700BF70B508460D461446F3
:1033900002F02CF810F0FF004AD04FF0000C05F1BD
:1033A000FF3E63462025461E0DE02D2908BF202143
:1033B0005A1C6645E154D3B209D00CF1010C5FFAF6
:1033C0008CF2904233D91EF8011F2C29EDD1062B27
:1033D00031D8C3F10702D2B2591C012AE554C9B24F
:1033E0001DD06554022A03F10201C9B217D06554F9
:1033F000032A03F10301C9B211D06554042A03F171
:103400000401C9B20BD06554052A03F10501C9B204
:1034100005D06554991DC9B2062A18BF65541A44CF
:103420000CF1010CD3B25FFA8CF29042CBD81C4461
:103430000023237070BDA3F10802052A03D8C3F14D
:103440000E02D2B2C8E7A3F10F02052AB5D8C3F124
:103450001502D2B2C0E700BF2DE9F84F264F4FF05A
:10346000190C01250446C0F86E710027DFF88CE0C6
:1034700080F86811CEF80400A0F8045180F802C06A
:10348000C27080F86A511E469DF828B0DDF82CA065
:103490009DF83080DDF83490FDF730FB184884F853
:1034A0006C71FDF7C1FF2A464FF020353946712077
:1034B000FDF78CFF6420FDF75BFB3146C4F8065135
:1034C000A4F80A5104F5837001F0BEFF514684F858
:1034D0000CB1C4F80D51A4F8115104F20D1001F013
:1034E000B3FF84F813814946204604F58A72BDE88B
:1034F000F84FFFF749BF00BF89011B036C0600208E
:10350000645BD94310B590F86B310446D3B1002306
:103510004FF40041104884F86B31FEF75FFC4FF028
:1035200080420021138823F001031B041B0C13802D
:10353000B4F86E319385918413889BB243F00103F4
:10354000138010BD01234FF40041034884F86B3110
:10355000FEF742FCE3E700BF000C0140144A0023E1
:1035600092E80300052230B5124C89B025880490FA
:10357000ADF8141004ACCDF81630CDF81A308DF833
:103580001E30A552204601F031FF05280246F8D929
:103590000022302507210848009103900748234660
:1035A0000190114606480295FFF756FF09B030BD5D
:1035B000D86E0008986E0008B06D0008B86D00085D
:1035C000740600200148FFF79DBF00BF740600206D
:1035D000014B93F86C0170477406002081F00041A4
:1035E00002E000BF83F0004330B54FEA41044FEAE8
:1035F000430594EA050F08BF90EA020F1FBF54EA83
:10360000000C55EA020C7FEA645C7FEA655C00F01E
:10361000E2804FEA5454D4EB5555B8BF6D420CDDEF
:103620002C4480EA020281EA030382EA000083EA72
:10363000010180EA020281EA0303362D88BF30BD12
:1036400011F0004F4FEA01314FF4801C4CEA113168
:1036500002D0404261EB410113F0004F4FEA0333C7
:103660004CEA133302D0524263EB430394EA050F52
:1036700000F0A780A4F10104D5F1200E0DDB02FAC1
:103680000EFC22FA05F2801841F1000103FA0EF255
:10369000801843FA05F359410EE0A5F120050EF11B
:1036A000200E012A03FA0EFC28BF4CF0020C43FA4C
:1036B00005F3C01851EBE37101F0004507D54FF059
:1036C000000EDCF1000C7EEB00006EEB0101B1F5A9
:1036D000801F1BD3B1F5001F0CD349085FEA3000EF
:1036E0004FEA3C0C04F101044FEA445212F5800FFA
:1036F00080F09A80BCF1004F08BF5FEA500C50F197
:10370000000041EB045141EA050130BD5FEA4C0C79
:10371000404141EB0101013C28BFB1F5801FE9D2D6
:1037200091F0000F04BF01460020B1FA81F308BFF9
:103730002033A3F10B03B3F120020CDA0C3208DDC5
:1037400002F1140CC2F10C0201FA0CF021FA02F1A0
:103750000CE002F11402D8BFC2F1200C01FA02F110
:1037600020FA0CFCDCBF41EA0C019040E41AA2BF35
:1037700001EB0451294330BD6FEA04041F3C1CDAFD
:103780000C340EDC04F11404C4F1200220FA04F01D
:1037900001FA02F340EA030021FA04F345EA0301C7
:1037A00030BDC4F10C04C4F1200220FA02F001FA89
:1037B00004F340EA0300294630BD21FA04F029460B
:1037C00030BD94F0000F83F4801306BF81F48011A4
:1037D0000134013D4EE77FEA645C18BF7FEA655C17
:1037E00029D094EA050F08BF90EA020F05D054EAE9
:1037F000000C04BF1946104630BD91EA030F1EBFEE
:103800000021002030BD5FEA545C05D140004941F1
:1038100028BF41F0004130BD14F580043CBF01F5E4
:10382000801130BD01F0004545F0FE4141F47001CA
:103830004FF0000030BD7FEA645C1ABF19461046A5
:103840007FEA655C1CBF0B46024650EA013406BFA6
:1038500052EA033591EA030F41F4002130BD00BF65
:1038600090F0000F04BF0021704730B54FF4806422
:1038700004F132044FF000054FF0000150E700BFA3
:1038800090F0000F04BF0021704730B54FF4806402
:1038900004F1320410F0004548BF40424FF00001EF
:1038A0003EE700BF42004FEAE2014FEA31014FEA32
:1038B00002701FBF12F07F4393F07F4F81F0605181
:1038C000704732F07F4208BF704793F07F4F04BFCC
:1038D00041F40021704730B54FF4607401F00045A9
:1038E00021F000411CE700BF50EA010208BF704709
:1038F00030B54FF000050AE050EA010208BF7047FA
:1039000030B511F0004502D5404261EB41014FF462
:10391000806404F132045FEA915C3FF4D8AE4FF06A
:1039200003025FEADC0C18BF03325FEADC0C18BF4D
:10393000033202EBDC02C2F1200300FA03FC20FA9E
:1039400002F001FA03FE40EA0E0021FA02F11444EB
:10395000BDE600BF70B54FF0FF0C4CF4E06C1CEA04
:1039600011541DBF1CEA135594EA0C0F95EA0C0F75
:1039700000F0DEF82C4481EA030621EA4C5123EAE8
:103980004C5350EA013518BF52EA033541F4801117
:1039900043F4801338D0A0FB02CE4FF00005E1FBCA
:1039A00002E506F00042E0FB03E54FF00006E1FB14
:1039B00003569CF0000F18BF4EF0010EA4F1FF0457
:1039C000B6F5007F64F5407404D25FEA4E0E6D4197
:1039D00046EB060642EAC62141EA55514FEAC520A8
:1039E00040EA5E504FEACE2EB4F1FD0C88BFBCF524
:1039F000E06F1ED8BEF1004F08BF5FEA500E50F1D5
:103A0000000041EB045170BD06F0004646EA01019A
:103A100040EA020081EA0301B4EB5C04C2BFD4EBCC
:103A20000C0541EA045170BD41F480114FF0000EC5
:103A3000013C00F3AB8014F1360FDEBF002001F033
:103A4000004170BDC4F10004203C35DA0C341BDCAD
:103A500004F11404C4F1200500FA05F320FA04F07F
:103A600001FA05F240EA020001F0004221F00041B3
:103A700010EBD37021FA04F642EB06015EEA430E26
:103A800008BF20EAD37070BDC4F10C04C4F1200556
:103A900000FA04F320FA05F001FA04F240EA020009
:103AA00001F0004110EBD37041F100015EEA430EDA
:103AB00008BF20EAD37070BDC4F1200500FA05F2FA
:103AC0004EEA020E20FA04F301FA05F243EA020379
:103AD00021FA04F001F0004121FA04F220EA020088
:103AE00000EBD3705EEA430E08BF20EAD37070BDCE
:103AF00094F0000F0FD101F00046400041EB0101AE
:103B000011F4801F08BF013CF7D041EA060195F08F
:103B1000000F18BF704703F00046520043EB030349
:103B200013F4801F08BF013DF7D043EA0603704736
:103B300094EA0C0F0CEA135518BF95EA0C0F0CD041
:103B400050EA410618BF52EA4306D1D181EA030187
:103B500001F000414FF0000070BD50EA410606BF81
:103B60001046194652EA430619D094EA0C0F02D1C6
:103B700050EA013613D195EA0C0F05D152EA03360B
:103B80001CBF104619460AD181EA030101F0004129
:103B900041F0FE4141F470014FF0000070BD41F072
:103BA000FE4141F4780170BD70B54FF0FF0C4CF44C
:103BB000E06C1CEA11541DBF1CEA135594EA0C0F6B
:103BC00095EA0C0F00F0A7F8A4EB050481EA030EB8
:103BD00052EA03354FEA013100F088804FEA03339F
:103BE0004FF0805545EA131343EA12634FEA02226D
:103BF00045EA111545EA10654FEA00260EF000412E
:103C00009D4208BF964244F1FD0404F5407402D27F
:103C10005B084FEA3202B61A65EB03055B084FEA10
:103C200032024FF480104FF4002CB6EB020E75EB0D
:103C3000030E22BFB61A754640EA0C005B084FEA35
:103C40003202B6EB020E75EB030E22BFB61A7546B2
:103C500040EA5C005B084FEA3202B6EB020E75EBFD
:103C6000030E22BFB61A754640EA9C005B084FEA75
:103C70003202B6EB020E75EB030E22BFB61A754682
:103C800040EADC0055EA060E18D04FEA051545EA71
:103C900016754FEA06164FEAC30343EA52734FEA1A
:103CA000C2025FEA1C1CC0D111F4801F0BD141EA93
:103CB00000014FF000004FF0004CB6E711F4801FF8
:103CC00004BF01430020B4F1FD0C88BFBCF5E06FD8
:103CD0003FF6AFAEB5EB030C04BFB6EB020C5FEAE8
:103CE000500C50F1000041EB045170BD0EF0004E3D
:103CF0004EEA113114EB5C04C2BFD4EB0C0541EA6F
:103D0000045170BD41F480114FF0000E013C90E66B
:103D100045EA060E8DE60CEA135594EA0C0F08BF2F
:103D200095EA0C0F3FF43BAF94EA0C0F0AD150EA2E
:103D300001347FF434AF95EA0C0F7FF425AF1046C1
:103D400019462CE795EA0C0F06D152EA03353FF4E9
:103D5000FDAE1046194622E750EA410618BF52EA66
:103D600043067FF4C5AE50EA41047FF40DAF52EA3A
:103D700043057FF4EBAE12E74FEA410212F5001261
:103D800015D211D56FF47873B3EB625212D94FEAA2
:103D9000C12343F0004343EA505311F0004F23FA8C
:103DA00002F018BF404270474FF00000704750EAE1
:103DB000013005D111F0004008BF6FF0004070479E
:103DC0004FF00000704700BF4A0011D212F50012F8
:103DD00011D20DD56FF47873B3EB62520ED44FEA63
:103DE000C12343F0004343EA505323FA02F07047E3
:103DF0004FF00000704750EA013002D14FF0FF3021
:103E000070474FF00000704780F0004002E000BFB4
:103E100081F0004142001FBF5FEA410392EA030FB5
:103E20007FEA226C7FEA236C6AD04FEA1262D2EBFF
:103E30001363C1BFD218414048404140B8BF5B4204
:103E4000192B88BF704710F0004F40F4000020F09D
:103E50007F4018BF404211F0004F41F4000121F0B3
:103E60007F4118BF494292EA030F3FD0A2F10102FD
:103E700041FA03FC10EB0C00C3F1200301FA03F13B
:103E800000F0004302D5494260EB4000B0F5000F5E
:103E900013D3B0F1807F06D340084FEA310102F11D
:103EA0000102FE2A51D2B1F1004F40EBC25008BFCF
:103EB00020F0010040EA03007047490040EB000099
:103EC000013A28BFB0F5000FEDD2B0FA80FCACF19A
:103ED000080CB2EB0C0200FA0CF0AABF00EBC250C7
:103EE00052421843BCBFD0401843704792F0000FB5
:103EF00081F4000106BF80F400000132013BB5E708
:103F00004FEA41037FEA226C18BF7FEA236C21D07D
:103F100092EA030F04D092F0000F08BF08467047E2
:103F200090EA010F1CBF0020704712F07F4F04D1B0
:103F3000400028BF40F00040704712F100723CBFC3
:103F400000F50000704700F0004343F0FE4040F4ED
:103F5000000070477FEA226216BF08467FEA2363AB
:103F60000146420206BF5FEA412390EA010F40F496
:103F7000800070474FF0000304E000BF10F00043E2
:103F800048BF40425FEA000C08BF704743F09643C9
:103F900001464FF000001CE050EA010208BF7047E4
:103FA0004FF000030AE000BF50EA010208BF70476B
:103FB00011F0004302D5404261EB41015FEA010C80
:103FC00002BF84460146002043F0B64308BFA3F178
:103FD0008053A3F50003BCFA8CF2083AA3EBC2535A
:103FE00010DB01FA02FC634400FA02FCC2F1200279
:103FF000BCF1004F20FA02F243EB020008BF20F0B0
:104000000100704702F1200201FA02FCC2F1200215
:1040100050EA4C0021FA02F243EB020008BF20EA0A
:10402000DC7070474FF0FF0C1CEAD0521EBF1CEA38
:10403000D15392EA0C0F93EA0C0F6FD01A4480EA26
:10404000010C400218BF5FEA41211ED04FF000630F
:1040500043EA501043EA5111A0FB01310CF000403B
:10406000B1F5000F3EBF490041EAD3715B0040EA61
:10407000010062F17F02FD2A1DD8B3F1004F40EB31
:10408000C25008BF20F00100704790F0000F0CF004
:10409000004C08BF49024CEA502040EA51207F3AC8
:1040A000C2BFD2F1FF0340EAC250704740F40000A3
:1040B0004FF00003013A5DDC12F1190FDCBF00F094
:1040C00000407047C2F10002410021FA02F1C2F142
:1040D000200200FA02FC5FEA310040F1000053EADE
:1040E0004C0308BF20EADC70704792F0000F00F02C
:1040F000004C02BF400010F4000F013AF9D040EA32
:104100000C0093F0000F01F0004C02BF490011F4C5
:10411000000F013BF9D041EA0C018FE70CEAD153C3
:1041200092EA0C0F18BF93EA0C0F0AD030F0004C43
:1041300018BF31F0004CD8D180EA010000F00040F7
:10414000704790F0000F17BF90F0004F084691F0B5
:10415000000F91F0004F14D092EA0C0F01D14202EF
:104160000FD193EA0C0F03D14B0218BF084608D1B8
:1041700080EA010000F0004040F0FE4040F4000002
:10418000704740F0FE4040F4400070474FF0FF0C95
:104190001CEAD0521EBF1CEAD15392EA0C0F93EADC
:1041A0000C0F69D0A2EB030280EA010C49024FEA2E
:1041B000402037D04FF0805343EA111143EA1013E7
:1041C0000CF000408B4238BF5B0042F17D024FF49F
:1041D000000C8B4224BF5B1A40EA0C00B3EB510F7A
:1041E00024BFA3EB510340EA5C00B3EB910F24BF63
:1041F000A3EB910340EA9C00B3EBD10F24BFA3EBE8
:10420000D10340EADC001B0118BF5FEA1C1CE0D1AF
:10421000FD2A3FF650AF8B4240EBC25008BF20F062
:10422000010070470CF0004C4CEA50207F32C2BFB6
:10423000D2F1FF0340EAC250704740F400004FF053
:104240000003013A37E792F0000F00F0004C02BF84
:10425000400010F4000F013AF9D040EA0C0093F04E
:10426000000F01F0004C02BF490011F4000F013BA8
:10427000F9D041EA0C0195E70CEAD15392EA0C0F10
:1042800008D142027FF47DAF93EA0C0F7FF470AF48
:10429000084676E793EA0C0F04D14B023FF44CAF8B
:1042A00008466EE730F0004C18BF31F0004CCAD120
:1042B00030F000427FF45CAF31F000437FF43CAF5C
:1042C0005FE700BF4FF0FF3C06E000BF4FF0010C7E
:1042D00002E000BF4FF0010C4DF804CD4FEA400260
:1042E0004FEA41037FEA226C18BF7FEA236C11D0AA
:1042F00001B052EA530C18BF90EA010F58BFB2EB5D
:10430000030088BFC81738BF6FEAE17018BF40F0DC
:10431000010070477FEA226C02D15FEA402C05D190
:104320007FEA236CE4D15FEA412CE1D05DF8040B15
:10433000704700BF844608466146FFE70FB5FFF7A8
:10434000C9FF002848BF10F1000F0FBD4DF808ED60
:10435000FFF7F4FF0CBF012000205DF808FB00BF51
:104360004DF808EDFFF7EAFF34BF012000205DF8AB
:1043700008FB00BF4DF808EDFFF7E0FF94BF0120F8
:1043800000205DF808FB00BF4DF808EDFFF7D2FFF5
:1043900094BF012000205DF808FB00BF4DF808ED38
:1043A000FFF7C8FF34BF012000205DF808FB00BF05
:1043B00042000ED2B2F1FE4F0BD34FF09E03B3EB8F
:1043C000126209D44FEA002343F0004323FA02F0BB
:1043D00070474FF00000704712F1610F01D14202A7
:1043E00002D14FF0FF3070474FF00000704700BF20
:1043F00003685A004CBF43F0004323F000431844C5
:10440000704700BF2DE9F04741B301F1FF38054681
:10441000164647460024E11901EBD171491005EB1E
:10442000C10A5046FFF7E4FF884503464FEAC10939
:104430000ED009F10800B34228440BD8FFF7D8FF8B
:104440000138B04201F10104E5D35046BDE8F087E0
:10445000B042FAD98C4201D04F1EDCE74FF0000A7F
:104460005046BDE8F08700BF012809D0022805D0DA
:10447000044B00280CBF18460020704702487047C4
:1044800002487047594B0008614B00085D4B00081B
:1044900030B5224B044683B08D1E3BB3284601A99C
:1044A000AFF30080E8B101992A46FFF7ABFF014660
:1044B000B8B1FFF79DFF4B68A064012B2BD0002BF8
:1044C00026DB081DFFF794FF002323650368E064E3
:1044D000002B12DBFFF78CFF03460020236103B0A3
:1044E00030BD00230920236103B030BD0C4B0D49C2
:1044F0001846C91AC9100191D6E7C3F30360FFF744
:10450000B3FF031E0CBF09200020236103B030BDA0
:104510000123081DD9E700230520DFE70000000084
:10452000006F0008D86F0008036810B5DA0704466A
:1045300006D49B0700F1500009D500F09DFC2368CC
:10454000590709D51A070ED5DB0613D510BD00F0A3
:104550008BFC23685907F5D404F1D80000F094FCD3
:1045600023681A07F0D404F5AC7000F095FC2368BA
:10457000DB06EBD404F5EC70BDE8104000F0D0BCD5
:104580000346006800B11844704700BF0920704717
:10459000704700BF70B504460E462046316CFFF7E9
:1045A00077FF054698B9D6F840C03246214601202B
:1045B0002369C4F814C098470828EED0072806D10C
:1045C0002846316CFFF7E4FF301D00F041FCFFDEB0
:1045D0002DE9F0474FF0000AADF5767D0DF10C0E98
:1045E00001F1040CC768D0F8188006461446BCE8F0
:1045F0000F00AEE80F00BCE80F00AEE80F00BCE80B
:104600000F00AEE80F009CE80F0002AD8EE80F002F
:10461000C5F800A021E02B6C4FF4F47229467361B9
:104620007CA801F041F93146504633697CAA98478D
:104630008A9C8246AC640120334632464946CDE925
:104640000058B847044630BB4FF4F47228467CA9A2
:1046500001F02AF9BAF1080F1AD13046296CFFF798
:1046600017FF04F109095FFA89FA04460028D2D03D
:10467000A96B3346A96432460120CDE900584AF0BF
:104680001001B84738B920460DF5767DBDE8F087B2
:10469000BAF1070F05D0092420460DF5767DBDE857
:1046A000F0872046296CFFF773FF03A800F0D0FBCA
:1046B000806C7047F0B54FF0FF37CB6BFBB00B64ED
:1046C00001AC01F1040C0E460546BCE80F000FC416
:1046D000BCE80F000FC4BCE80F000FC49CE80F003B
:1046E00084E80F00009706E06A4629462B69984740
:1046F0000828044608D128461099FFF7C9FE00286B
:10470000F2D009207BB0F0BD6846FFF70DFF062C04
:10471000F7D131462846FFF73DFF00BF10B41446DD
:104720008461DC6BC16000221C64194610BC4FE739
:1047300070B54369C6680B64AEB90A46036904469E
:104740000D46014602209847072805D008280ED1BB
:1047500029462046FFF71EFF3046296CFFF718FF59
:10476000281D00F075FB0122FFF732FFFFDEFFDEA0
:10477000C2682AB1D1F83CC00022C1F840C027E786
:1047800098E700BF704700BF836801460BB1012066
:1047900018477047052915D8DFE801F00A0314030C
:1047A000030501207047436C009A00201360704796
:1047B00043B90F2A06D800EB82025368009A002002
:1047C0001360704702207047002300B585B00A4689
:1047D00003A900911946FFF7DDFF039805B05DF8C6
:1047E00004FB00BF052915D8DFE801F00A03140314
:1047F000030501207047009B1B684364002070473D
:1048000043B90F2A06D8009B00EB82021B680020E8
:104810005360704702207047002310B584B003AC8A
:10482000039200940A461946FFF7DCFF04B010BD5E
:1048300070B54FF0FF36D36BADF5107D13640DF1FD
:104840005C0E02F1040C05460C46BCE80F00AEE815
:104850000F00BCE80F00AEE80F00BCE80F00AEE8A8
:104860000F009CE80F008EE80F00169612E00C2156
:1048700016A86A46FFF7D0FF214616A8A84778B9C0
:1048800069460820049B16AA98470528064608D0C2
:10489000092805D068462699FFF7FAFD0028E6D0DA
:1048A000092616A8FFF740FE30460DF5107D70BDB5
:1048B0002DE9F04F1646CA6C0D4652F8041B89B01C
:1048C00000F0030C0692002B79D002240F0C8DF817
:1048D0001D700904FFB2059102EB8702296DBCF13E
:1048E000020F08BFAA6B11F001088DF81C4009D017
:1048F000304605A900F0AEFB002856D1082009B0CB
:10490000BDE8F08F1768002FF2D0E3469A4600F01A
:104910000801CDE90118BAF1020F4CD0178854886C
:1049200002F10409AA6C24F001030F21304603EBC5
:104930000208FFF749FF80453BD827F0010202EB50
:104940000803834294BF00230123640004F002049F
:1049500007F001072743012F4ED0022F35D027BB88
:10496000BBF1000F02D0002B40F0D48009F104020B
:104970001768002FCFD1304605A9DDF8088000F078
:1049800069FB90B9B8F1000FB8D00F213046FFF79E
:104990001BFF0E2102463046FFF73EFF0F21304637
:1049A0006C4AFFF739FF072000E0092009B0BDE895
:1049B000F08F0023C9E7546802F10809B2E7090241
:1049C000032405918DF81D3088E7D9F8004024F0C4
:1049D0000048BBF1000F47D12BB1019B002B5CD0ED
:1049E000B8F1000F59D0002C01DA09F1040908F1DF
:1049F000010209EB8202BBE7BBF1000F1CD1C3B17E
:104A0000D9F80430D9F80020991C4FEAD272CCD0E2
:104A100005F158040133049400F08F8009F104007B
:104A2000FFF7AEFD04AB01462846AFF30080002837
:104A300059D109F108029BE70D213046FFF7C4FE6A
:104A40002C6A8442F5D1AB6A9945F2D14846FFF70A
:104A5000CFFC0F2102463046FFF7DEFE2A4600213A
:104A60003046FFF7D9FE9EE70D213046FFF7ACFE3A
:104A70002F6A8742B7D1AB6A9945B4D10024042389
:104A8000C5E90B434B44C5F828806B63D9F8003067
:104A9000A34259DB01230293A9E705F15803CDF89E
:104AA0000CB00024B34609F104071E460BE038465B
:104AB0000496FFF765FD0022014604AB2846AFF3DC
:104AC0000080043700BB444504F10104EFD10D21FF
:104AD0005846FFF779FE0246049B0620C5E90823E5
:104AE000C5F8289062E704460D213046FFF76CFEBA
:104AF000049E022C08BFEE62286208BF05F12C0656
:104B00000620C5E9096951E75E46D9F80040DDF89D
:104B10000CB068E74846FFF76BFC09F10402044655
:104B2000AA632846AFF3008000283FF43EAF224638
:104B30000F213046FFF770FE35E730460D21FFF7B5
:104B400043FE26462862DBE708F1010209EB8200FA
:104B50007DE700BF000000000023A9E60123A7E6CF
:104B60000223A5E62DE9F04105461446C4B0052907
:104B700000F2D780DFE811F012002A00D5006900AA
:104B800090000600836B002C40F0CB8053F8042B80
:104B900042648363002044B0BDE8F081002B40F004
:104BA000C0804FF0010E816B2A1DA0B20EFA03FCEB
:104BB0001CEA000F1CBF51F8046B42F8236001335C
:104BC000102BF3D1A004E5D4A963E3E7012B4FEA4E
:104BD0001447A4B200F08580052B40F0A28007EBBB
:104BE0000408B8F1200F00F29C800F2F40F29B8048
:104BF000002CCFD00268560700F11A81019302AE53
:104C0000304600F045F94FEA440CA7F11002A86BBA
:104C1000019B0CF1FF3C06EBC2020CF1010C043AC3
:104C200000EB8C0150F8044B884242F8044FF9D154
:104C3000012B00F0E0800F2FA86302D822A800F01B
:104C40001BF9304600F020F9A4E7032B69D11FFAC5
:104C500084F808EB1443102B4FEA144461D803681E
:104C6000180700F1C08022AE304600F037F94FEA55
:104C70004801AF6B06EBC4024B1E41B1B81A115884
:104C8000013B42F8041B591CF9D107EBC807304619
:104C9000AF6300F001F97DE7002B42D1102C40D822
:104CA0000368DE0600F1978022AE304600F042F93C
:104CB000012700233046A96B07FA03F2224203F1D1
:104CC000010305D00A4652F804CB1146C0F800C0D3
:104CD000042B00F10400EFD13046A96300F020F965
:104CE00058E73A19102A1CD8102F1AD00268D0079A
:104CF00008D5284622F0030240F8502B019300F01B
:104D0000B7F8019B22AE3046019300F0B1F8A96BD1
:104D1000019B002C58D104313046A96300F0A4F85F
:104D200038E7022037E7B8F1100F026865D9D107DC
:104D300072D522F0010242F0020240F8502B01939A
:104D400000F09EF82A68019B12F0040F66D122AE93
:104D50003046019300F094F802A800F099F8C7F1EA
:104D600010025200A96B019B541EA8F1100C06EB17
:104D7000C7020134043A01EB840051F8044B81422C
:104D800042F8044FF9D1BCF1000F59D0102F3A4628
:104D900038BF10224FEA4C0C02AE103A0CF1FF3C27
:104DA00006EBC20239E7284622F0010242F0020275
:104DB00040F8502B22AE019300F062F8304600F02C
:104DC0005FF8A96B24B3019B64004FF0000C013C19
:104DD00006EBC702CDE723F01003036000F5EC708B
:104DE00000F0A8F860E723F008032B6005F5AC702D
:104DF00000F074F837E722AE8DE7D107D3D422AEA6
:104E00003046019300F03CF8A96B019B002CDBD1EC
:104E1000304600F031F8BDE6540798D5284622F018
:104E2000040240F8D82B019300F032F8019B8EE782
:104E300022F0040240F8D82B019300F029F8DEE6B6
:104E4000012B3FF468AF0F2FA9633FF6A3AEDFE756
:104E500000F1340191E838009C46A6464CF8045D08
:104E600090E8FF0FE54600BD90EC210B704700BFB6
:104E700080EC210B704700BF90EC200B704700BF07
:104E800080EC200B704700BFD0EC200B704700BFB8
:104E9000C0EC200B704700BFF0EC0201F0EC0211F7
:104EA000F0EC0221F0EC0231F0EC0241F0EC0251A6
:104EB000F0EC0261F0EC0271F0EC0281F0EC029196
:104EC000F0EC02A1F0EC02B1F0EC02C1F0EC02D186
:104ED000F0EC02E1F0EC02F1704700BFE0EC0201FF
:104EE000E0EC0211E0EC0221E0EC0231E0EC0241E6
:104EF000E0EC0251E0EC0261E0EC0271E0EC0281D6
:104F0000E0EC0291E0EC02A1E0EC02B1E0EC02C1C5
:104F1000E0EC02D1E0EC02E1E0EC02F1704700BF0E
:104F2000B0FC0181B0FC0191B0FC01A1B0FC01B169
:104F3000704700BFA0FC0181A0FC0191A0FC01A171
:104F4000A0FC01B1704700BFEC4600B52DE9005050
:104F50002DE9FF1F4FF000032DE90C0001A9FFF719
:104F6000A9FBDDF840E012B0704700BFEC4600B589
:104F70002DE900502DE9FF1F4FF000032DE90C0033
:104F800001A9FFF7D5FBDDF840E012B0704700BF84
:104F9000EC4600B52DE900502DE9FF1F4FF000034E
:104FA0002DE90C0001A9FFF7E3FBDDF840E012B0AA
:104FB000704700BFEC4600B52DE900502DE9FF1FFA
:104FC0004FF000032DE90C0001ABFFF7A7FBDDF864
:104FD00040E012B0704700BFEC4600B52DE900502C
:104FE0002DE9FF1F4FF000032DE90C0001AAFFF788
:104FF0001FFCDDF840E012B0704700BF027A0346A4
:105000007AB9427AA2B14FF0030C4168013A427278
:1050100008680A1D5A60020283F808C0000E1A6070
:1050200070470068013A1A7202021A60000E704757
:10503000B0207047002300B585B003A900910C2271
:105040001946FFF7A7FB039805B05DF804FB00BF06
:10505000F0E700BF2DE9F0434FF0000806460D468B
:1050600085B02846FFF7CAFFB028044600F0128139
:1050700007065CD500F0F003A02B1AD030D8802BA7
:1050800000F08380902B27D100F00D030D2B23D04F
:10509000002302AF194600F00F0200973046FFF7D9
:1050A00079FB00230D22194630460097FFF79AFB43
:1050B000D7E7C3434FF47F6203F007031A410107A8
:1050C00002F47F6201D542F4804200233046194643
:1050D000FFF748FD0028C4D0092005B0BDE8F083E3
:1050E000B02B69D0C02B3ED1C62800F0BF80C728A6
:1050F00000F0D58000F0F803C02B00F0E280C82853
:1051000000F0ED80C928E7D12846FFF777FF052397
:1051100001210446220304F00F0402F470220C441F
:1051200030462243FFF71EFD00289AD0D4E78300C3
:10513000DBB21F1D00230DF1080919460D22304670
:10514000CDF80090FFF726FB029B60064CBFDF1BEB
:10515000FF1800230D2230461946CDF80090029723
:10516000FFF740FB7DE700F0F803D02BB4D100F04F
:105170000702013205230121304642F40022FFF7E5
:10518000F1FC00283FF46DAFA6E72846FFF736FF95
:1051900024022043B0F5004F9ED00023040119469D
:1051A0003046A2B2FFF7DEFC002895D114F4004F80
:1051B00018BF4FF0010854E7A0F1B103042B00F22F
:1051C000B380DFE803F0491D160C0300002303AA97
:1051D000009230460D221946FFF7DCFA41E7002322
:1051E000052130461A46FFF7BDFC00283FF439AFD1
:1051F00072E72846FFF702FF01230446194689E7B4
:1052000000230DF108090D2219463046CDF8009013
:10521000FFF7C0FA2846FFF7F1FE02064FF002073B
:10522000029C0BD500F07F00B8400444284602944D
:10523000FFF7E4FE030607F10707F3D40023B840A5
:1052400004F5017404440D2230461946CDF800904F
:105250000294FFF7C7FA04E72846FFF7CFFE431E84
:10526000DBB20E2B02467FF630AF35E72846FFF75C
:10527000C5FE04460323220304F00F0402F4702247
:105280000134194630462243FFF76CFC00283FF4F6
:10529000E8AE21E7B8F1000F36D000201DE7284620
:1052A000FFF7ACFE431EDBB20E2B02463FF614AFF7
:1052B000002304213046FFF755FC00283FF4D1AE0F
:1052C0000AE7032300F00F0201323046194642F488
:1052D0002022FFF747FC00283FF4C3AEFCE6284637
:1052E000FFF78CFE0246012102F0F00402F00F02EB
:1052F00010340A440523304642EA0432FFF732FCF8
:1053000000283FF4AEAEE7E602AC434641460E222B
:1053100030460094FFF73EFA0F224346414630469E
:105320000094FFF75FFAB8E700F0FC03B42B3FF4FA
:10533000D3AE012300F007021A443046194642F466
:105340000022FFF70FFC00283FF48BAEC4E600BF3D
:105350000B464FF0030C00B5C26C1846536885B07D
:105360000832029201A91A0E1B028DF80CC001939B
:105370008DF80D20FFF76EFE05B05DF804FB00BF51
:1053800008B5FFF765FE806C08BD00BF08B5FFF7E4
:105390005FFEC06CC37900EB8300083008BD00BF1E
:1053A000144600B51A460A4B0D461B6885B0DE68E8
:1053B00003464CB1074901913046074902940095D4
:1053C00000F0F6FAFDF712F804490C46F3E700BFC7
:1053D000F40000202C6E00083C6E00084C6D0008A4
:1053E00008B513460022FFF7DBFF00BF20F00301E2
:1053F00010F00300C0F1000051F8043B00F1040C70
:105400004FEACC0C6FF000021CBF22FA0CF21343DF
:105410004FF0010C4CEA0C2C4CEA0C4CA3EB0C02A8
:1054200022EA030212EACC1204BF51F8043B043012
:10543000F4D0C2F1000102EA0102B2FA82F2C2F132
:105440001F0200EBD200704780EA0102844612F08E
:10545000030F4FD111F0030F32D14DF8044D11F06D
:10546000040F51F8043B0BD0A3F101329A4312F020
:10547000803F04BF4CF8043B51F8043B16D100BFF9
:1054800051F8044BA3F101329A4312F0803FA4F18A
:1054900001320BD14CF8043BA24312F0803F04BF11
:1054A00051F8043B4CF8044BEAD023460CF8013B7E
:1054B00013F0FF0F4FEA3323F8D15DF8044B704728
:1054C00011F0010F06D011F8012B0CF8012B002A66
:1054D00008BF704711F0020FBFD031F8022B12F055
:1054E000FF0F16BF2CF8022B8CF8002012F47F4F10
:1054F000B3D1704711F8012B0CF8012B002AF9D118
:10550000704700BF70B5860747D0541E002A3ED0B2
:105510000346CAB201E0013C39D303F8012B9D07D1
:10552000F9D1032C2CD9CDB205EB05250F2C1A4649
:1055300005EB054534D9A4F1100C2CF00F0603F14E
:10554000100EB6444FEA1C1CC2E90055C2E90255D0
:1055500010327245F8D10CF1010214F00C0F03EB7C
:10556000021204F00F0C13D0ACF1040323F0030378
:105570000433134442F8045B9342FBD10CF0030460
:105580002CB1C9B21C4403F8011BA342FBD170BD6E
:1055900064461346002CF4D1F9E703461446C0E7ED
:1055A000A446E1E770B5114E054633680C46BBB121
:1055B0002146284600F02AFE431C01460CD0C41C9C
:1055C00024F00304A04205D02846611A00F01EFE14
:1055D000013001D0204670BD4FF0FF34204670BD31
:1055E000194600F013FE3060E2E700BFEC07002030
:1055F0002DE9F843CD1C25F0030508350C2D38BFE7
:105600000C25002D064618DBA94216D8DFF8DC80F1
:1056100000F0E8FBD8F80420A2B1144603E0636868
:1056200022467BB11C4623685B1BF8D40B2B1FD88A
:105630009442636854D053600CE00C233360002024
:10564000BDE8F88329463046FFF7ACFF431C04460B
:1056500019D00560304600F0C7FB04F10B00231D94
:1056600020F00700C21A1CBF1B1AA350BDE8F88324
:1056700061199442256014BF5160C8F80410635149
:1056800063684B60E6E7D8F804701FB33C467F6858
:10569000002FFBD123683946304604EB030900F0A4
:1056A000B5FD814516D123683046ED1A2946FFF72E
:1056B00079FF01300ED02368D8F804202B442360F2
:1056C000536883B1A34203D01A465B689C42FBD166
:1056D0000023B0E70C233046336000F085FBAEE7D3
:1056E000C8F80430B6E7C8F80470B3E7EC07002048
:1056F000002950D038B551F8043C0C1F002BB8BF1E
:10570000E418054600F06EFB274A13682BB1A3424C
:105710000CD92168601883422CD02846636014603D
:10572000BDE8384000F060BBA3420FD81A465B6862
:10573000002BF9D111685018844217D02CD3636024
:1057400054602846BDE8384000F04EBB1168501840
:10575000A04214D020D8216860188342EFD1186885
:105760005B680844C4E900035460EAE723680B441B
:105770001360E6E718685B6808442060CDE720689E
:105780000144501883421160DBD1D3E90004014485
:10579000C2E90014D5E770470C2328462B60BDE80A
:1057A000384000F021BB00BFF007002088420ED92E
:1057B0008B1883420BD900EB020C002A6DD0624695
:1057C00013F801CD994202F801CDF9D170470F2AA3
:1057D0000FD8034602F1FF3C002A5ED00CF1010C09
:1057E000013B8C4411F8012B614503F8012FF9D1DD
:1057F000704740EA01039B0750D1A2F1100370B536
:1058000001F1200C23F00F0501F1100E00F110043E
:10581000AC441B095EF8105C0EF1100E44F8105CED
:105820005EF81C5C103444F81C5C5EF8185C44F8AC
:10583000185C5EF8145CE64544F8145CEAD1013368
:1058400012F00C0F01EB031102F00F0400EB031335
:1058500028D08E46043C24F003064FEA940C1E44E4
:105860001C1F5EF8045B44F8045FB442F9D10CF1EC
:10587000010402F0030203EB840301EB840102F153
:10588000FF3C4AB10CF1010C013B8C4411F8012B97
:10589000614503F8012FF9D170BD7047034602F14D
:1058A000FF3C9BE72246EAE7844641EA000313F007
:1058B000030349D1403A23D30B6803604B6843602C
:1058C0008B688360CB68C3600B6903614B6943617C
:1058D0008B698361CB69C3610B6A03624B6A436264
:1058E0008B6A8362CB6AC3620B6B03634B6B43634C
:1058F0008B6B8363CB6BC36340304031403ADBD268
:1059000030320BD30B6803604B6843608B68836055
:10591000CB68C36010301031103AF3D20C3205D38B
:1059200051F8043B40F8043B043AF9D2043208D061
:10593000D2071CBF11F8013B00F8013B01D30B88D3
:1059400003806046704700BF082A13D38B07B1D08D
:1059500010F00303AED0C3F10403D21ADB071CBF5F
:1059600011F8013B00F8013BA4D331F8023B20F8C9
:10597000023B9FE7043AD9D3013A11F8013B00F802
:10598000013BF9D20B7803704B7843708B788370AE
:10599000604670470CB400B583B004AB53F8042BD9
:1059A000019300F0ABFA03B05DF804EB02B070476E
:1059B0000EB400B5074A82B003AB0146106853F835
:1059C000042B019300F09AFA02B05DF804EB03B0E7
:1059D000704700BFF40000202DE9F041144641B3A8
:1059E0000AB306460D4600F023FC8442074602D85F
:1059F000B4EB500F13D821463046FFF7F9FD80462F
:105A000050B1BC422246294628BF3A46FFF74CFF18
:105A100029463046FFF76CFE4046BDE8F081A846B7
:105A20004046BDE8F081A046FFF762FE4046BDE873
:105A3000F0811146BDE8F041FFF7DABD2DE9F84FDE
:105A400092461F460A698B680C469A42B8BF1A46AE
:105A5000CAF8002091F843300646DDF8289013B1CB
:105A60000132CAF80020226891065FD5DAF80030CA
:105A70000233CAF80030226812F0060F11461DD119
:105A8000E1689942D8BF114618DD4FF0000804F1D3
:105A9000190B05E0E568DAF80030ED1A45450CDD34
:105AA00001235A4639463046C847013008F10108FB
:105AB000F0D14FF0FF30BDE8F88F216894F8433003
:105AC000003B18BF01238A060AD53021E21882F86C
:105AD000431094F845105A1C2244023382F84310B4
